{
  "contractName": "fundEth",
  "abi": [
    {
      "inputs": [
        {
          "internalType": "address",
          "name": "",
          "type": "address"
        },
        {
          "internalType": "uint256",
          "name": "",
          "type": "uint256"
        }
      ],
      "name": "Donations",
      "outputs": [
        {
          "internalType": "uint256",
          "name": "donation_id",
          "type": "uint256"
        },
        {
          "internalType": "address",
          "name": "from_address",
          "type": "address"
        },
        {
          "internalType": "address",
          "name": "to_address",
          "type": "address"
        },
        {
          "internalType": "uint256",
          "name": "eth_in_wei",
          "type": "uint256"
        },
        {
          "internalType": "uint256",
          "name": "date",
          "type": "uint256"
        },
        {
          "internalType": "bool",
          "name": "anonymous_state",
          "type": "bool"
        },
        {
          "internalType": "string",
          "name": "doner",
          "type": "string"
        },
        {
          "internalType": "uint256",
          "name": "donerId",
          "type": "uint256"
        },
        {
          "internalType": "string",
          "name": "charity",
          "type": "string"
        },
        {
          "internalType": "uint256",
          "name": "charityId",
          "type": "uint256"
        },
        {
          "internalType": "bool",
          "name": "donated",
          "type": "bool"
        }
      ],
      "stateMutability": "view",
      "type": "function",
      "constant": true
    },
    {
      "inputs": [
        {
          "internalType": "uint256",
          "name": "",
          "type": "uint256"
        }
      ],
      "name": "DonationsById",
      "outputs": [
        {
          "internalType": "uint256",
          "name": "donation_id",
          "type": "uint256"
        },
        {
          "internalType": "address",
          "name": "from_address",
          "type": "address"
        },
        {
          "internalType": "address",
          "name": "to_address",
          "type": "address"
        },
        {
          "internalType": "uint256",
          "name": "eth_in_wei",
          "type": "uint256"
        },
        {
          "internalType": "uint256",
          "name": "date",
          "type": "uint256"
        },
        {
          "internalType": "bool",
          "name": "anonymous_state",
          "type": "bool"
        },
        {
          "internalType": "string",
          "name": "doner",
          "type": "string"
        },
        {
          "internalType": "uint256",
          "name": "donerId",
          "type": "uint256"
        },
        {
          "internalType": "string",
          "name": "charity",
          "type": "string"
        },
        {
          "internalType": "uint256",
          "name": "charityId",
          "type": "uint256"
        },
        {
          "internalType": "bool",
          "name": "donated",
          "type": "bool"
        }
      ],
      "stateMutability": "view",
      "type": "function",
      "constant": true
    },
    {
      "inputs": [
        {
          "internalType": "string",
          "name": "",
          "type": "string"
        }
      ],
      "name": "ExpenseReasonByHash",
      "outputs": [
        {
          "internalType": "string",
          "name": "blockHash",
          "type": "string"
        },
        {
          "internalType": "string",
          "name": "reason",
          "type": "string"
        }
      ],
      "stateMutability": "view",
      "type": "function",
      "constant": true
    },
    {
      "inputs": [
        {
          "internalType": "address",
          "name": "",
          "type": "address"
        },
        {
          "internalType": "uint256",
          "name": "",
          "type": "uint256"
        }
      ],
      "name": "ExpenseReasons",
      "outputs": [
        {
          "internalType": "string",
          "name": "blockHash",
          "type": "string"
        },
        {
          "internalType": "string",
          "name": "reason",
          "type": "string"
        }
      ],
      "stateMutability": "view",
      "type": "function",
      "constant": true
    },
    {
      "inputs": [
        {
          "internalType": "address payable",
          "name": "to_address",
          "type": "address"
        },
        {
          "internalType": "uint256",
          "name": "date",
          "type": "uint256"
        },
        {
          "internalType": "bool",
          "name": "anonymous_state",
          "type": "bool"
        },
        {
          "internalType": "string",
          "name": "doner",
          "type": "string"
        },
        {
          "internalType": "uint256",
          "name": "donerId",
          "type": "uint256"
        },
        {
          "internalType": "string",
          "name": "charity",
          "type": "string"
        },
        {
          "internalType": "uint256",
          "name": "charityId",
          "type": "uint256"
        }
      ],
      "name": "createDonation",
      "outputs": [
        {
          "components": [
            {
              "internalType": "uint256",
              "name": "donation_id",
              "type": "uint256"
            },
            {
              "internalType": "address",
              "name": "from_address",
              "type": "address"
            },
            {
              "internalType": "address",
              "name": "to_address",
              "type": "address"
            },
            {
              "internalType": "uint256",
              "name": "eth_in_wei",
              "type": "uint256"
            },
            {
              "internalType": "uint256",
              "name": "date",
              "type": "uint256"
            },
            {
              "internalType": "bool",
              "name": "anonymous_state",
              "type": "bool"
            },
            {
              "internalType": "string",
              "name": "doner",
              "type": "string"
            },
            {
              "internalType": "uint256",
              "name": "donerId",
              "type": "uint256"
            },
            {
              "internalType": "string",
              "name": "charity",
              "type": "string"
            },
            {
              "internalType": "uint256",
              "name": "charityId",
              "type": "uint256"
            },
            {
              "internalType": "bool",
              "name": "donated",
              "type": "bool"
            }
          ],
          "internalType": "struct fundEth.Donation",
          "name": "",
          "type": "tuple"
        }
      ],
      "stateMutability": "payable",
      "type": "function",
      "payable": true
    },
    {
      "inputs": [
        {
          "internalType": "address",
          "name": "of_address",
          "type": "address"
        }
      ],
      "name": "getDonationsOf",
      "outputs": [
        {
          "components": [
            {
              "internalType": "uint256",
              "name": "donation_id",
              "type": "uint256"
            },
            {
              "internalType": "address",
              "name": "from_address",
              "type": "address"
            },
            {
              "internalType": "address",
              "name": "to_address",
              "type": "address"
            },
            {
              "internalType": "uint256",
              "name": "eth_in_wei",
              "type": "uint256"
            },
            {
              "internalType": "uint256",
              "name": "date",
              "type": "uint256"
            },
            {
              "internalType": "bool",
              "name": "anonymous_state",
              "type": "bool"
            },
            {
              "internalType": "string",
              "name": "doner",
              "type": "string"
            },
            {
              "internalType": "uint256",
              "name": "donerId",
              "type": "uint256"
            },
            {
              "internalType": "string",
              "name": "charity",
              "type": "string"
            },
            {
              "internalType": "uint256",
              "name": "charityId",
              "type": "uint256"
            },
            {
              "internalType": "bool",
              "name": "donated",
              "type": "bool"
            }
          ],
          "internalType": "struct fundEth.Donation[]",
          "name": "",
          "type": "tuple[]"
        }
      ],
      "stateMutability": "view",
      "type": "function",
      "constant": true
    },
    {
      "inputs": [
        {
          "internalType": "uint256",
          "name": "d_id",
          "type": "uint256"
        }
      ],
      "name": "getDonationByID",
      "outputs": [
        {
          "internalType": "uint256",
          "name": "",
          "type": "uint256"
        },
        {
          "internalType": "address",
          "name": "",
          "type": "address"
        },
        {
          "internalType": "address",
          "name": "",
          "type": "address"
        },
        {
          "internalType": "uint256",
          "name": "",
          "type": "uint256"
        },
        {
          "internalType": "uint256",
          "name": "",
          "type": "uint256"
        },
        {
          "internalType": "bool",
          "name": "",
          "type": "bool"
        },
        {
          "internalType": "string",
          "name": "",
          "type": "string"
        },
        {
          "internalType": "uint256",
          "name": "",
          "type": "uint256"
        },
        {
          "internalType": "string",
          "name": "",
          "type": "string"
        },
        {
          "internalType": "uint256",
          "name": "",
          "type": "uint256"
        }
      ],
      "stateMutability": "view",
      "type": "function",
      "constant": true
    },
    {
      "inputs": [
        {
          "internalType": "string",
          "name": "blockHash",
          "type": "string"
        },
        {
          "internalType": "string",
          "name": "reason",
          "type": "string"
        },
        {
          "internalType": "address payable",
          "name": "from",
          "type": "address"
        }
      ],
      "name": "createExpense",
      "outputs": [
        {
          "internalType": "string",
          "name": "",
          "type": "string"
        },
        {
          "internalType": "string",
          "name": "",
          "type": "string"
        }
      ],
      "stateMutability": "payable",
      "type": "function",
      "payable": true
    },
    {
      "inputs": [
        {
          "internalType": "string",
          "name": "blockHash",
          "type": "string"
        },
        {
          "internalType": "string",
          "name": "reason",
          "type": "string"
        },
        {
          "internalType": "address payable",
          "name": "from",
          "type": "address"
        }
      ],
      "name": "updateExpense",
      "outputs": [
        {
          "internalType": "string",
          "name": "",
          "type": "string"
        },
        {
          "internalType": "string",
          "name": "",
          "type": "string"
        }
      ],
      "stateMutability": "payable",
      "type": "function",
      "payable": true
    },
    {
      "inputs": [
        {
          "internalType": "string",
          "name": "blockHash",
          "type": "string"
        }
      ],
      "name": "getExpenseByHash",
      "outputs": [
        {
          "components": [
            {
              "internalType": "string",
              "name": "blockHash",
              "type": "string"
            },
            {
              "internalType": "string",
              "name": "reason",
              "type": "string"
            }
          ],
          "internalType": "struct fundEth.ExpenseReason",
          "name": "",
          "type": "tuple"
        }
      ],
      "stateMutability": "view",
      "type": "function",
      "constant": true
    },
    {
      "inputs": [
        {
          "internalType": "address",
          "name": "of_address",
          "type": "address"
        }
      ],
      "name": "getExpensesOf",
      "outputs": [
        {
          "components": [
            {
              "internalType": "string",
              "name": "blockHash",
              "type": "string"
            },
            {
              "internalType": "string",
              "name": "reason",
              "type": "string"
            }
          ],
          "internalType": "struct fundEth.ExpenseReason[]",
          "name": "",
          "type": "tuple[]"
        }
      ],
      "stateMutability": "view",
      "type": "function",
      "constant": true
    }
  ],
  "bytecode": "0x6080604052600160005534801561001557600080fd5b50613184806100256000396000f3fe60806040526004361061009c5760003560e01c80638ff6f6bb116100645780638ff6f6bb146101c8578063a1128da4146101f8578063da10b9d514610235578063e889868814610266578063f1295586146102ad578063fc506117146102f45761009c565b80630c56e613146100a15780632f57b112146100df578063618e81471461011c578063631d88ce1461015a578063814075f41461018b575b600080fd5b3480156100ad57600080fd5b506100c860048036038101906100c3919061241e565b61033a565b6040516100d69291906124ef565b60405180910390f35b3480156100eb57600080fd5b5061010660048036038101906101019190612584565b610484565b6040516101139190612701565b60405180910390f35b34801561012857600080fd5b50610143600480360381019061013e9190612759565b610646565b6040516101519291906124ef565b60405180910390f35b610174600480360381019061016f91906127d7565b610797565b6040516101829291906124ef565b60405180910390f35b34801561019757600080fd5b506101b260048036038101906101ad9190612584565b610b11565b6040516101bf9190612a53565b60405180910390f35b6101e260048036038101906101dd9190612aa1565b610de8565b6040516101ef9190612c71565b60405180910390f35b34801561020457600080fd5b5061021f600480360381019061021a919061241e565b6116e8565b60405161022c9190612cd7565b60405180910390f35b61024f600480360381019061024a91906127d7565b61184a565b60405161025d9291906124ef565b60405180910390f35b34801561027257600080fd5b5061028d60048036038101906102889190612759565b611b17565b6040516102a49b9a99989796959493929190612d26565b60405180910390f35b3480156102b957600080fd5b506102d460048036038101906102cf9190612ddf565b611cf8565b6040516102eb9b9a99989796959493929190612d26565b60405180910390f35b34801561030057600080fd5b5061031b60048036038101906103169190612ddf565b611ebc565b6040516103319a99989796959493929190612e0c565b60405180910390f35b60048180516020810182018051848252602083016020850120818352809550505050505060009150905080600001805461037390612ee5565b80601f016020809104026020016040519081016040528092919081815260200182805461039f90612ee5565b80156103ec5780601f106103c1576101008083540402835291602001916103ec565b820191906000526020600020905b8154815290600101906020018083116103cf57829003601f168201915b50505050509080600101805461040190612ee5565b80601f016020809104026020016040519081016040528092919081815260200182805461042d90612ee5565b801561047a5780601f1061044f5761010080835404028352916020019161047a565b820191906000526020600020905b81548152906001019060200180831161045d57829003601f168201915b5050505050905082565b6060600360008373ffffffffffffffffffffffffffffffffffffffff1673ffffffffffffffffffffffffffffffffffffffff168152602001908152602001600020805480602002602001604051908101604052809291908181526020016000905b8282101561063b578382906000526020600020906002020160405180604001604052908160008201805461051890612ee5565b80601f016020809104026020016040519081016040528092919081815260200182805461054490612ee5565b80156105915780601f1061056657610100808354040283529160200191610591565b820191906000526020600020905b81548152906001019060200180831161057457829003601f168201915b505050505081526020016001820180546105aa90612ee5565b80601f01602080910402602001604051908101604052809291908181526020018280546105d690612ee5565b80156106235780601f106105f857610100808354040283529160200191610623565b820191906000526020600020905b81548152906001019060200180831161060657829003601f168201915b505050505081525050815260200190600101906104e5565b505050509050919050565b6003602052816000526040600020818154811061066257600080fd5b90600052602060002090600202016000915091505080600001805461068690612ee5565b80601f01602080910402602001604051908101604052809291908181526020018280546106b290612ee5565b80156106ff5780601f106106d4576101008083540402835291602001916106ff565b820191906000526020600020905b8154815290600101906020018083116106e257829003601f168201915b50505050509080600101805461071490612ee5565b80601f016020809104026020016040519081016040528092919081815260200182805461074090612ee5565b801561078d5780601f106107625761010080835404028352916020019161078d565b820191906000526020600020905b81548152906001019060200180831161077057829003601f168201915b5050505050905082565b6060808273ffffffffffffffffffffffffffffffffffffffff166108fc349081150290604051600060405180830381858888f193505050501580156107e0573d6000803e3d6000fd5b5060005b600360008573ffffffffffffffffffffffffffffffffffffffff1673ffffffffffffffffffffffffffffffffffffffff16815260200190815260200160002080549050811015610972578560405160200161083f9190612f53565b60405160208183030381529060405280519060200120600360008673ffffffffffffffffffffffffffffffffffffffff1673ffffffffffffffffffffffffffffffffffffffff16815260200190815260200160002082815481106108a6576108a5612f6a565b5b90600052602060002090600202016000016040516020016108c7919061302d565b60405160208183030381529060405280519060200120141561095f5784600360008673ffffffffffffffffffffffffffffffffffffffff1673ffffffffffffffffffffffffffffffffffffffff168152602001908152602001600020828154811061093557610934612f6a565b5b9060005260206000209060020201600101908051906020019061095992919061217d565b50610972565b808061096a90613073565b9150506107e4565b50836004866040516109849190612f53565b908152602001604051809103902060010190805190602001906109a892919061217d565b5060006004866040516109bb9190612f53565b90815260200160405180910390206040518060400160405290816000820180546109e490612ee5565b80601f0160208091040260200160405190810160405280929190818152602001828054610a1090612ee5565b8015610a5d5780601f10610a3257610100808354040283529160200191610a5d565b820191906000526020600020905b815481529060010190602001808311610a4057829003601f168201915b50505050508152602001600182018054610a7690612ee5565b80601f0160208091040260200160405190810160405280929190818152602001828054610aa290612ee5565b8015610aef5780601f10610ac457610100808354040283529160200191610aef565b820191906000526020600020905b815481529060010190602001808311610ad257829003601f168201915b5050505050815250509050806000015181602001519250925050935093915050565b6060600160008373ffffffffffffffffffffffffffffffffffffffff1673ffffffffffffffffffffffffffffffffffffffff168152602001908152602001600020805480602002602001604051908101604052809291908181526020016000905b82821015610ddd57838290600052602060002090600b020160405180610160016040529081600082015481526020016001820160009054906101000a900473ffffffffffffffffffffffffffffffffffffffff1673ffffffffffffffffffffffffffffffffffffffff1673ffffffffffffffffffffffffffffffffffffffff1681526020016002820160009054906101000a900473ffffffffffffffffffffffffffffffffffffffff1673ffffffffffffffffffffffffffffffffffffffff1673ffffffffffffffffffffffffffffffffffffffff16815260200160038201548152602001600482015481526020016005820160009054906101000a900460ff16151515158152602001600682018054610c8b90612ee5565b80601f0160208091040260200160405190810160405280929190818152602001828054610cb790612ee5565b8015610d045780601f10610cd957610100808354040283529160200191610d04565b820191906000526020600020905b815481529060010190602001808311610ce757829003601f168201915b5050505050815260200160078201548152602001600882018054610d2790612ee5565b80601f0160208091040260200160405190810160405280929190818152602001828054610d5390612ee5565b8015610da05780601f10610d7557610100808354040283529160200191610da0565b820191906000526020600020905b815481529060010190602001808311610d8357829003601f168201915b5050505050815260200160098201548152602001600a820160009054906101000a900460ff16151515158152505081526020019060010190610b72565b505050509050919050565b610df0612203565b60003411610e33576040517f08c379a0000000000000000000000000000000000000000000000000000000008152600401610e2a9061312e565b60405180910390fd5b8773ffffffffffffffffffffffffffffffffffffffff166108fc349081150290604051600060405180830381858888f19350505050158015610e79573d6000803e3d6000fd5b50610e82612203565b8615610f445760405180610160016040528060005481526020013373ffffffffffffffffffffffffffffffffffffffff1681526020018a73ffffffffffffffffffffffffffffffffffffffff16815260200134815260200189815260200188151581526020016040518060400160405280600981526020017f416e6f6e796d6f75730000000000000000000000000000000000000000000000815250815260200160008152602001858152602001848152602001600115158152509050610fc6565b60405180610160016040528060005481526020013373ffffffffffffffffffffffffffffffffffffffff1681526020018a73ffffffffffffffffffffffffffffffffffffffff16815260200134815260200189815260200188151581526020018781526020018681526020018581526020018481526020016001151581525090505b600160003373ffffffffffffffffffffffffffffffffffffffff1673ffffffffffffffffffffffffffffffffffffffff1681526020019081526020016000208190806001815401808255809150506001900390600052602060002090600b02016000909190919091506000820151816000015560208201518160010160006101000a81548173ffffffffffffffffffffffffffffffffffffffff021916908373ffffffffffffffffffffffffffffffffffffffff16021790555060408201518160020160006101000a81548173ffffffffffffffffffffffffffffffffffffffff021916908373ffffffffffffffffffffffffffffffffffffffff160217905550606082015181600301556080820151816004015560a08201518160050160006101000a81548160ff02191690831515021790555060c082015181600601908051906020019061111792919061217d565b5060e0820151816007015561010082015181600801908051906020019061113f92919061217d565b50610120820151816009015561014082015181600a0160006101000a81548160ff0219169083151502179055505050600160008a73ffffffffffffffffffffffffffffffffffffffff1673ffffffffffffffffffffffffffffffffffffffff1681526020019081526020016000208190806001815401808255809150506001900390600052602060002090600b02016000909190919091506000820151816000015560208201518160010160006101000a81548173ffffffffffffffffffffffffffffffffffffffff021916908373ffffffffffffffffffffffffffffffffffffffff16021790555060408201518160020160006101000a81548173ffffffffffffffffffffffffffffffffffffffff021916908373ffffffffffffffffffffffffffffffffffffffff160217905550606082015181600301556080820151816004015560a08201518160050160006101000a81548160ff02191690831515021790555060c08201518160060190805190602001906112bf92919061217d565b5060e082015181600701556101008201518160080190805190602001906112e792919061217d565b50610120820151816009015561014082015181600a0160006101000a81548160ff02191690831515021790555050508060026000805481526020019081526020016000206000820151816000015560208201518160010160006101000a81548173ffffffffffffffffffffffffffffffffffffffff021916908373ffffffffffffffffffffffffffffffffffffffff16021790555060408201518160020160006101000a81548173ffffffffffffffffffffffffffffffffffffffff021916908373ffffffffffffffffffffffffffffffffffffffff160217905550606082015181600301556080820151816004015560a08201518160050160006101000a81548160ff02191690831515021790555060c082015181600601908051906020019061141392919061217d565b5060e0820151816007015561010082015181600801908051906020019061143b92919061217d565b50610120820151816009015561014082015181600a0160006101000a81548160ff02191690831515021790555090505060008081548092919061147d90613073565b9190505550600260008054815260200190815260200160002060405180610160016040529081600082015481526020016001820160009054906101000a900473ffffffffffffffffffffffffffffffffffffffff1673ffffffffffffffffffffffffffffffffffffffff1673ffffffffffffffffffffffffffffffffffffffff1681526020016002820160009054906101000a900473ffffffffffffffffffffffffffffffffffffffff1673ffffffffffffffffffffffffffffffffffffffff1673ffffffffffffffffffffffffffffffffffffffff16815260200160038201548152602001600482015481526020016005820160009054906101000a900460ff1615151515815260200160068201805461159790612ee5565b80601f01602080910402602001604051908101604052809291908181526020018280546115c390612ee5565b80156116105780601f106115e557610100808354040283529160200191611610565b820191906000526020600020905b8154815290600101906020018083116115f357829003601f168201915b505050505081526020016007820154815260200160088201805461163390612ee5565b80601f016020809104026020016040519081016040528092919081815260200182805461165f90612ee5565b80156116ac5780601f10611681576101008083540402835291602001916116ac565b820191906000526020600020905b81548152906001019060200180831161168f57829003601f168201915b5050505050815260200160098201548152602001600a820160009054906101000a900460ff161515151581525050915050979650505050505050565b6116f061228d565b60006004836040516117029190612f53565b908152602001604051809103902060405180604001604052908160008201805461172b90612ee5565b80601f016020809104026020016040519081016040528092919081815260200182805461175790612ee5565b80156117a45780601f10611779576101008083540402835291602001916117a4565b820191906000526020600020905b81548152906001019060200180831161178757829003601f168201915b505050505081526020016001820180546117bd90612ee5565b80601f01602080910402602001604051908101604052809291908181526020018280546117e990612ee5565b80156118365780601f1061180b57610100808354040283529160200191611836565b820191906000526020600020905b81548152906001019060200180831161181957829003601f168201915b505050505081525050905080915050919050565b6060808273ffffffffffffffffffffffffffffffffffffffff166108fc349081150290604051600060405180830381858888f19350505050158015611893573d6000803e3d6000fd5b5060006040518060400160405280878152602001868152509050600360008573ffffffffffffffffffffffffffffffffffffffff1673ffffffffffffffffffffffffffffffffffffffff168152602001908152602001600020819080600181540180825580915050600190039060005260206000209060020201600090919091909150600082015181600001908051906020019061193292919061217d565b50602082015181600101908051906020019061194f92919061217d565b505050806004876040516119639190612f53565b9081526020016040518091039020600082015181600001908051906020019061198d92919061217d565b5060208201518160010190805190602001906119aa92919061217d565b5090505060006004876040516119c09190612f53565b90815260200160405180910390206040518060400160405290816000820180546119e990612ee5565b80601f0160208091040260200160405190810160405280929190818152602001828054611a1590612ee5565b8015611a625780601f10611a3757610100808354040283529160200191611a62565b820191906000526020600020905b815481529060010190602001808311611a4557829003601f168201915b50505050508152602001600182018054611a7b90612ee5565b80601f0160208091040260200160405190810160405280929190818152602001828054611aa790612ee5565b8015611af45780601f10611ac957610100808354040283529160200191611af4565b820191906000526020600020905b815481529060010190602001808311611ad757829003601f168201915b505050505081525050905080600001518160200151935093505050935093915050565b60016020528160005260406000208181548110611b3357600080fd5b90600052602060002090600b0201600091509150508060000154908060010160009054906101000a900473ffffffffffffffffffffffffffffffffffffffff16908060020160009054906101000a900473ffffffffffffffffffffffffffffffffffffffff16908060030154908060040154908060050160009054906101000a900460ff1690806006018054611bc890612ee5565b80601f0160208091040260200160405190810160405280929190818152602001828054611bf490612ee5565b8015611c415780601f10611c1657610100808354040283529160200191611c41565b820191906000526020600020905b815481529060010190602001808311611c2457829003601f168201915b505050505090806007015490806008018054611c5c90612ee5565b80601f0160208091040260200160405190810160405280929190818152602001828054611c8890612ee5565b8015611cd55780601f10611caa57610100808354040283529160200191611cd5565b820191906000526020600020905b815481529060010190602001808311611cb857829003601f168201915b50505050509080600901549080600a0160009054906101000a900460ff1690508b565b60026020528060005260406000206000915090508060000154908060010160009054906101000a900473ffffffffffffffffffffffffffffffffffffffff16908060020160009054906101000a900473ffffffffffffffffffffffffffffffffffffffff16908060030154908060040154908060050160009054906101000a900460ff1690806006018054611d8c90612ee5565b80601f0160208091040260200160405190810160405280929190818152602001828054611db890612ee5565b8015611e055780601f10611dda57610100808354040283529160200191611e05565b820191906000526020600020905b815481529060010190602001808311611de857829003601f168201915b505050505090806007015490806008018054611e2090612ee5565b80601f0160208091040260200160405190810160405280929190818152602001828054611e4c90612ee5565b8015611e995780601f10611e6e57610100808354040283529160200191611e99565b820191906000526020600020905b815481529060010190602001808311611e7c57829003601f168201915b50505050509080600901549080600a0160009054906101000a900460ff1690508b565b600080600080600080606060006060600080600260008d815260200190815260200160002060405180610160016040529081600082015481526020016001820160009054906101000a900473ffffffffffffffffffffffffffffffffffffffff1673ffffffffffffffffffffffffffffffffffffffff1673ffffffffffffffffffffffffffffffffffffffff1681526020016002820160009054906101000a900473ffffffffffffffffffffffffffffffffffffffff1673ffffffffffffffffffffffffffffffffffffffff1673ffffffffffffffffffffffffffffffffffffffff16815260200160038201548152602001600482015481526020016005820160009054906101000a900460ff16151515158152602001600682018054611fe290612ee5565b80601f016020809104026020016040519081016040528092919081815260200182805461200e90612ee5565b801561205b5780601f106120305761010080835404028352916020019161205b565b820191906000526020600020905b81548152906001019060200180831161203e57829003601f168201915b505050505081526020016007820154815260200160088201805461207e90612ee5565b80601f01602080910402602001604051908101604052809291908181526020018280546120aa90612ee5565b80156120f75780601f106120cc576101008083540402835291602001916120f7565b820191906000526020600020905b8154815290600101906020018083116120da57829003601f168201915b5050505050815260200160098201548152602001600a820160009054906101000a900460ff1615151515815250509050806000015181602001518260400151836060015184608001518560a001518660c001518760e001518861010001518961012001519a509a509a509a509a509a509a509a509a509a50509193959799509193959799565b82805461218990612ee5565b90600052602060002090601f0160209004810192826121ab57600085556121f2565b82601f106121c457805160ff19168380011785556121f2565b828001600101855582156121f2579182015b828111156121f15782518255916020019190600101906121d6565b5b5090506121ff91906122a7565b5090565b60405180610160016040528060008152602001600073ffffffffffffffffffffffffffffffffffffffff168152602001600073ffffffffffffffffffffffffffffffffffffffff1681526020016000815260200160008152602001600015158152602001606081526020016000815260200160608152602001600081526020016000151581525090565b604051806040016040528060608152602001606081525090565b5b808211156122c05760008160009055506001016122a8565b5090565b6000604051905090565b600080fd5b600080fd5b600080fd5b600080fd5b6000601f19601f8301169050919050565b7f4e487b7100000000000000000000000000000000000000000000000000000000600052604160045260246000fd5b61232b826122e2565b810181811067ffffffffffffffff8211171561234a576123496122f3565b5b80604052505050565b600061235d6122c4565b90506123698282612322565b919050565b600067ffffffffffffffff821115612389576123886122f3565b5b612392826122e2565b9050602081019050919050565b82818337600083830152505050565b60006123c16123bc8461236e565b612353565b9050828152602081018484840111156123dd576123dc6122dd565b5b6123e884828561239f565b509392505050565b600082601f830112612405576124046122d8565b5b81356124158482602086016123ae565b91505092915050565b600060208284031215612434576124336122ce565b5b600082013567ffffffffffffffff811115612452576124516122d3565b5b61245e848285016123f0565b91505092915050565b600081519050919050565b600082825260208201905092915050565b60005b838110156124a1578082015181840152602081019050612486565b838111156124b0576000848401525b50505050565b60006124c182612467565b6124cb8185612472565b93506124db818560208601612483565b6124e4816122e2565b840191505092915050565b6000604082019050818103600083015261250981856124b6565b9050818103602083015261251d81846124b6565b90509392505050565b600073ffffffffffffffffffffffffffffffffffffffff82169050919050565b600061255182612526565b9050919050565b61256181612546565b811461256c57600080fd5b50565b60008135905061257e81612558565b92915050565b60006020828403121561259a576125996122ce565b5b60006125a88482850161256f565b91505092915050565b600081519050919050565b600082825260208201905092915050565b6000819050602082019050919050565b600082825260208201905092915050565b60006125f982612467565b61260381856125dd565b9350612613818560208601612483565b61261c816122e2565b840191505092915050565b6000604083016000830151848203600086015261264482826125ee565b9150506020830151848203602086015261265e82826125ee565b9150508091505092915050565b60006126778383612627565b905092915050565b6000602082019050919050565b6000612697826125b1565b6126a181856125bc565b9350836020820285016126b3856125cd565b8060005b858110156126ef57848403895281516126d0858261266b565b94506126db8361267f565b925060208a019950506001810190506126b7565b50829750879550505050505092915050565b6000602082019050818103600083015261271b818461268c565b905092915050565b6000819050919050565b61273681612723565b811461274157600080fd5b50565b6000813590506127538161272d565b92915050565b600080604083850312156127705761276f6122ce565b5b600061277e8582860161256f565b925050602061278f85828601612744565b9150509250929050565b60006127a482612526565b9050919050565b6127b481612799565b81146127bf57600080fd5b50565b6000813590506127d1816127ab565b92915050565b6000806000606084860312156127f0576127ef6122ce565b5b600084013567ffffffffffffffff81111561280e5761280d6122d3565b5b61281a868287016123f0565b935050602084013567ffffffffffffffff81111561283b5761283a6122d3565b5b612847868287016123f0565b9250506040612858868287016127c2565b9150509250925092565b600081519050919050565b600082825260208201905092915050565b6000819050602082019050919050565b61289781612723565b82525050565b6128a681612546565b82525050565b60008115159050919050565b6128c1816128ac565b82525050565b6000610160830160008301516128e0600086018261288e565b5060208301516128f3602086018261289d565b506040830151612906604086018261289d565b506060830151612919606086018261288e565b50608083015161292c608086018261288e565b5060a083015161293f60a08601826128b8565b5060c083015184820360c086015261295782826125ee565b91505060e083015161296c60e086018261288e565b5061010083015184820361010086015261298682826125ee565b91505061012083015161299d61012086018261288e565b506101408301516129b26101408601826128b8565b508091505092915050565b60006129c983836128c7565b905092915050565b6000602082019050919050565b60006129e982612862565b6129f3818561286d565b935083602082028501612a058561287e565b8060005b85811015612a415784840389528151612a2285826129bd565b9450612a2d836129d1565b925060208a01995050600181019050612a09565b50829750879550505050505092915050565b60006020820190508181036000830152612a6d81846129de565b905092915050565b612a7e816128ac565b8114612a8957600080fd5b50565b600081359050612a9b81612a75565b92915050565b600080600080600080600060e0888a031215612ac057612abf6122ce565b5b6000612ace8a828b016127c2565b9750506020612adf8a828b01612744565b9650506040612af08a828b01612a8c565b955050606088013567ffffffffffffffff811115612b1157612b106122d3565b5b612b1d8a828b016123f0565b9450506080612b2e8a828b01612744565b93505060a088013567ffffffffffffffff811115612b4f57612b4e6122d3565b5b612b5b8a828b016123f0565b92505060c0612b6c8a828b01612744565b91505092959891949750929550565b600061016083016000830151612b94600086018261288e565b506020830151612ba7602086018261289d565b506040830151612bba604086018261289d565b506060830151612bcd606086018261288e565b506080830151612be0608086018261288e565b5060a0830151612bf360a08601826128b8565b5060c083015184820360c0860152612c0b82826125ee565b91505060e0830151612c2060e086018261288e565b50610100830151848203610100860152612c3a82826125ee565b915050610120830151612c5161012086018261288e565b50610140830151612c666101408601826128b8565b508091505092915050565b60006020820190508181036000830152612c8b8184612b7b565b905092915050565b60006040830160008301518482036000860152612cb082826125ee565b91505060208301518482036020860152612cca82826125ee565b9150508091505092915050565b60006020820190508181036000830152612cf18184612c93565b905092915050565b612d0281612723565b82525050565b612d1181612546565b82525050565b612d20816128ac565b82525050565b600061016082019050612d3c600083018e612cf9565b612d49602083018d612d08565b612d56604083018c612d08565b612d63606083018b612cf9565b612d70608083018a612cf9565b612d7d60a0830189612d17565b81810360c0830152612d8f81886124b6565b9050612d9e60e0830187612cf9565b818103610100830152612db181866124b6565b9050612dc1610120830185612cf9565b612dcf610140830184612d17565b9c9b505050505050505050505050565b600060208284031215612df557612df46122ce565b5b6000612e0384828501612744565b91505092915050565b600061014082019050612e22600083018d612cf9565b612e2f602083018c612d08565b612e3c604083018b612d08565b612e49606083018a612cf9565b612e566080830189612cf9565b612e6360a0830188612d17565b81810360c0830152612e7581876124b6565b9050612e8460e0830186612cf9565b818103610100830152612e9781856124b6565b9050612ea7610120830184612cf9565b9b9a5050505050505050505050565b7f4e487b7100000000000000000000000000000000000000000000000000000000600052602260045260246000fd5b60006002820490506001821680612efd57607f821691505b60208210811415612f1157612f10612eb6565b5b50919050565b600081905092915050565b6000612f2d82612467565b612f378185612f17565b9350612f47818560208601612483565b80840191505092915050565b6000612f5f8284612f22565b915081905092915050565b7f4e487b7100000000000000000000000000000000000000000000000000000000600052603260045260246000fd5b60008190508160005260206000209050919050565b60008154612fbb81612ee5565b612fc58186612f17565b94506001821660008114612fe05760018114612ff157613024565b60ff19831686528186019350613024565b612ffa85612f99565b60005b8381101561301c57815481890152600182019150602081019050612ffd565b838801955050505b50505092915050565b60006130398284612fae565b915081905092915050565b7f4e487b7100000000000000000000000000000000000000000000000000000000600052601160045260246000fd5b600061307e82612723565b91507fffffffffffffffffffffffffffffffffffffffffffffffffffffffffffffffff8214156130b1576130b0613044565b5b600182019050919050565b7f73656e646572206d7573742073656e6420736f6d652076616c7565206772656160008201527f746572207468616e203020776569000000000000000000000000000000000000602082015250565b6000613118602e83612472565b9150613123826130bc565b604082019050919050565b600060208201905081810360008301526131478161310b565b905091905056fea2646970667358221220ad684102ea5b96ba606f71094519675c27d684215c10e5e3b68cf9d4f131871864736f6c634300080b0033",
  "immutableReferences": {},
  "source": "// SPDX-License-Identifier: MIT\r\npragma solidity 0.8.11;\r\n\r\ncontract fundEth {\r\n    uint donation_id = 1;\r\n\r\n    struct Donation {\r\n        uint donation_id;\r\n        address from_address;\r\n        address to_address;\r\n        uint eth_in_wei;\r\n        uint256 date;\r\n        bool anonymous_state;\r\n        string doner;\r\n        uint donerId;\r\n        string charity;\r\n        uint charityId;\r\n        bool donated;\r\n    }\r\n\r\n    struct ExpenseReason {\r\n        string blockHash;\r\n        string reason;\r\n    }\r\n\r\n    mapping(address => Donation[]) public Donations;\r\n    mapping(uint => Donation) public DonationsById;\r\n\r\n    mapping(address => ExpenseReason[]) public ExpenseReasons;\r\n    mapping(string => ExpenseReason) public ExpenseReasonByHash;\r\n\r\n    function createDonation(address payable to_address, uint256 date, bool anonymous_state, string memory doner, uint donerId, string memory charity, uint charityId) public payable returns(Donation memory) {\r\n        require(msg.value > 0, \"sender must send some value greater than 0 wei\");   \r\n        to_address.transfer(msg.value);\r\n            Donation memory donation_data;\r\n        if(anonymous_state)\r\n            donation_data = Donation(donation_id, msg.sender, to_address, msg.value, date, anonymous_state, \"Anonymous\", 0, charity, charityId, true);\r\n        else\r\n            donation_data = Donation(donation_id, msg.sender, to_address, msg.value, date, anonymous_state, doner, donerId, charity, charityId, true);\r\n        Donations[msg.sender].push(donation_data);\r\n        Donations[to_address].push(donation_data);\r\n        DonationsById[donation_id] = donation_data;\r\n        donation_id++;\r\n        return  DonationsById[donation_id];\r\n    }\r\n\r\n    function getDonationsOf(address of_address) public view returns(Donation[] memory) {\r\n        return Donations[of_address];\r\n    }\r\n\r\n    function getDonationByID(uint d_id) public view returns(uint, address, address, uint, uint256, bool, string memory, uint, string memory, uint) {\r\n        Donation memory d = DonationsById[d_id];\r\n        return (d.donation_id, d.from_address, d.to_address, d.eth_in_wei, d.date, d.anonymous_state, d.doner, d.donerId, d.charity, d.charityId);\r\n    }\r\n\r\n    function createExpense(string memory blockHash, string memory reason, address payable from) public payable returns(string memory, string memory) {\r\n        from.transfer(msg.value);\r\n        ExpenseReason memory exReason = ExpenseReason(blockHash, reason);\r\n        ExpenseReasons[from].push(exReason);\r\n        ExpenseReasonByHash[blockHash] = exReason;\r\n        ExpenseReason memory rs = ExpenseReasonByHash[blockHash];\r\n        return (rs.blockHash, rs.reason);\r\n    }\r\n\r\n    function updateExpense(string memory blockHash, string memory reason, address payable from) public payable returns(string memory, string memory) {\r\n        from.transfer(msg.value);\r\n        // ExpenseReason[] memory exps = ExpenseReasons[from];\r\n        for(uint i=0; i<ExpenseReasons[from].length; i++)\r\n            if(keccak256(abi.encodePacked((ExpenseReasons[from][i].blockHash))) == keccak256(abi.encodePacked((blockHash)))) {\r\n                ExpenseReasons[from][i].reason = reason;\r\n                break;\r\n            }\r\n        ExpenseReasonByHash[blockHash].reason = reason;\r\n        ExpenseReason memory rs = ExpenseReasonByHash[blockHash];\r\n        return (rs.blockHash, rs.reason);\r\n    }\r\n\r\n    function getExpenseByHash(string memory blockHash) public view returns(ExpenseReason memory) {\r\n        ExpenseReason memory rs = ExpenseReasonByHash[blockHash];\r\n        return rs;\r\n    }\r\n\r\n    function getExpensesOf(address of_address) public view returns(ExpenseReason[] memory) {\r\n        return ExpenseReasons[of_address];\r\n    }\r\n}",
  "sourcePath": "D:\\Jay\\Projects\\Personal\\Fund Tracking\\Frontend\\charity-fund-tracker-webapp\\src\\contracts\\fundEth.sol",
  "compiler": {
    "name": "solc",
    "version": "0.8.11+commit.d7f03943.Emscripten.clang"
  },
  "schemaVersion": "3.4.4",
  "updatedAt": "2022-07-18T07:42:38.042Z",
  "networkType": "ethereum",
  "devdoc": {
    "kind": "dev",
    "methods": {},
    "version": 1
  },
  "userdoc": {
    "kind": "user",
    "methods": {},
    "version": 1
  }
}