{
  "contractName": "fundEth",
  "abi": [
    {
      "inputs": [
        {
          "internalType": "address",
          "name": "",
          "type": "address"
        },
        {
          "internalType": "uint256",
          "name": "",
          "type": "uint256"
        }
      ],
      "name": "Donations",
      "outputs": [
        {
          "internalType": "uint256",
          "name": "donation_id",
          "type": "uint256"
        },
        {
          "internalType": "address",
          "name": "from_address",
          "type": "address"
        },
        {
          "internalType": "address",
          "name": "to_address",
          "type": "address"
        },
        {
          "internalType": "uint256",
          "name": "eth_in_wei",
          "type": "uint256"
        },
        {
          "internalType": "uint256",
          "name": "date",
          "type": "uint256"
        },
        {
          "internalType": "bool",
          "name": "anonymous_state",
          "type": "bool"
        },
        {
          "internalType": "string",
          "name": "doner",
          "type": "string"
        },
        {
          "internalType": "uint256",
          "name": "donerId",
          "type": "uint256"
        },
        {
          "internalType": "string",
          "name": "charity",
          "type": "string"
        },
        {
          "internalType": "uint256",
          "name": "charityId",
          "type": "uint256"
        },
        {
          "internalType": "bool",
          "name": "donated",
          "type": "bool"
        }
      ],
      "stateMutability": "view",
      "type": "function",
      "constant": true
    },
    {
      "inputs": [
        {
          "internalType": "uint256",
          "name": "",
          "type": "uint256"
        }
      ],
      "name": "DonationsById",
      "outputs": [
        {
          "internalType": "uint256",
          "name": "donation_id",
          "type": "uint256"
        },
        {
          "internalType": "address",
          "name": "from_address",
          "type": "address"
        },
        {
          "internalType": "address",
          "name": "to_address",
          "type": "address"
        },
        {
          "internalType": "uint256",
          "name": "eth_in_wei",
          "type": "uint256"
        },
        {
          "internalType": "uint256",
          "name": "date",
          "type": "uint256"
        },
        {
          "internalType": "bool",
          "name": "anonymous_state",
          "type": "bool"
        },
        {
          "internalType": "string",
          "name": "doner",
          "type": "string"
        },
        {
          "internalType": "uint256",
          "name": "donerId",
          "type": "uint256"
        },
        {
          "internalType": "string",
          "name": "charity",
          "type": "string"
        },
        {
          "internalType": "uint256",
          "name": "charityId",
          "type": "uint256"
        },
        {
          "internalType": "bool",
          "name": "donated",
          "type": "bool"
        }
      ],
      "stateMutability": "view",
      "type": "function",
      "constant": true
    },
    {
      "inputs": [
        {
          "internalType": "string",
          "name": "",
          "type": "string"
        }
      ],
      "name": "ExpenseReasonByHash",
      "outputs": [
        {
          "internalType": "string",
          "name": "blockHash",
          "type": "string"
        },
        {
          "internalType": "string",
          "name": "reason",
          "type": "string"
        }
      ],
      "stateMutability": "view",
      "type": "function",
      "constant": true
    },
    {
      "inputs": [
        {
          "internalType": "address",
          "name": "",
          "type": "address"
        },
        {
          "internalType": "uint256",
          "name": "",
          "type": "uint256"
        }
      ],
      "name": "ExpenseReasons",
      "outputs": [
        {
          "internalType": "string",
          "name": "blockHash",
          "type": "string"
        },
        {
          "internalType": "string",
          "name": "reason",
          "type": "string"
        }
      ],
      "stateMutability": "view",
      "type": "function",
      "constant": true
    },
    {
      "inputs": [
        {
          "internalType": "address payable",
          "name": "to_address",
          "type": "address"
        },
        {
          "internalType": "uint256",
          "name": "date",
          "type": "uint256"
        },
        {
          "internalType": "bool",
          "name": "anonymous_state",
          "type": "bool"
        },
        {
          "internalType": "string",
          "name": "doner",
          "type": "string"
        },
        {
          "internalType": "uint256",
          "name": "donerId",
          "type": "uint256"
        },
        {
          "internalType": "string",
          "name": "charity",
          "type": "string"
        },
        {
          "internalType": "uint256",
          "name": "charityId",
          "type": "uint256"
        }
      ],
      "name": "createDonation",
      "outputs": [
        {
          "components": [
            {
              "internalType": "uint256",
              "name": "donation_id",
              "type": "uint256"
            },
            {
              "internalType": "address",
              "name": "from_address",
              "type": "address"
            },
            {
              "internalType": "address",
              "name": "to_address",
              "type": "address"
            },
            {
              "internalType": "uint256",
              "name": "eth_in_wei",
              "type": "uint256"
            },
            {
              "internalType": "uint256",
              "name": "date",
              "type": "uint256"
            },
            {
              "internalType": "bool",
              "name": "anonymous_state",
              "type": "bool"
            },
            {
              "internalType": "string",
              "name": "doner",
              "type": "string"
            },
            {
              "internalType": "uint256",
              "name": "donerId",
              "type": "uint256"
            },
            {
              "internalType": "string",
              "name": "charity",
              "type": "string"
            },
            {
              "internalType": "uint256",
              "name": "charityId",
              "type": "uint256"
            },
            {
              "internalType": "bool",
              "name": "donated",
              "type": "bool"
            }
          ],
          "internalType": "struct fundEth.Donation",
          "name": "",
          "type": "tuple"
        }
      ],
      "stateMutability": "payable",
      "type": "function",
      "payable": true
    },
    {
      "inputs": [
        {
          "internalType": "address",
          "name": "of_address",
          "type": "address"
        }
      ],
      "name": "getDonationsOf",
      "outputs": [
        {
          "components": [
            {
              "internalType": "uint256",
              "name": "donation_id",
              "type": "uint256"
            },
            {
              "internalType": "address",
              "name": "from_address",
              "type": "address"
            },
            {
              "internalType": "address",
              "name": "to_address",
              "type": "address"
            },
            {
              "internalType": "uint256",
              "name": "eth_in_wei",
              "type": "uint256"
            },
            {
              "internalType": "uint256",
              "name": "date",
              "type": "uint256"
            },
            {
              "internalType": "bool",
              "name": "anonymous_state",
              "type": "bool"
            },
            {
              "internalType": "string",
              "name": "doner",
              "type": "string"
            },
            {
              "internalType": "uint256",
              "name": "donerId",
              "type": "uint256"
            },
            {
              "internalType": "string",
              "name": "charity",
              "type": "string"
            },
            {
              "internalType": "uint256",
              "name": "charityId",
              "type": "uint256"
            },
            {
              "internalType": "bool",
              "name": "donated",
              "type": "bool"
            }
          ],
          "internalType": "struct fundEth.Donation[]",
          "name": "",
          "type": "tuple[]"
        }
      ],
      "stateMutability": "view",
      "type": "function",
      "constant": true
    },
    {
      "inputs": [
        {
          "internalType": "uint256",
          "name": "d_id",
          "type": "uint256"
        }
      ],
      "name": "getDonationByID",
      "outputs": [
        {
          "components": [
            {
              "internalType": "uint256",
              "name": "donation_id",
              "type": "uint256"
            },
            {
              "internalType": "address",
              "name": "from_address",
              "type": "address"
            },
            {
              "internalType": "address",
              "name": "to_address",
              "type": "address"
            },
            {
              "internalType": "uint256",
              "name": "eth_in_wei",
              "type": "uint256"
            },
            {
              "internalType": "uint256",
              "name": "date",
              "type": "uint256"
            },
            {
              "internalType": "bool",
              "name": "anonymous_state",
              "type": "bool"
            },
            {
              "internalType": "string",
              "name": "doner",
              "type": "string"
            },
            {
              "internalType": "uint256",
              "name": "donerId",
              "type": "uint256"
            },
            {
              "internalType": "string",
              "name": "charity",
              "type": "string"
            },
            {
              "internalType": "uint256",
              "name": "charityId",
              "type": "uint256"
            },
            {
              "internalType": "bool",
              "name": "donated",
              "type": "bool"
            }
          ],
          "internalType": "struct fundEth.Donation",
          "name": "",
          "type": "tuple"
        }
      ],
      "stateMutability": "view",
      "type": "function",
      "constant": true
    },
    {
      "inputs": [
        {
          "internalType": "string",
          "name": "blockHash",
          "type": "string"
        },
        {
          "internalType": "string",
          "name": "reason",
          "type": "string"
        },
        {
          "internalType": "address payable",
          "name": "from",
          "type": "address"
        }
      ],
      "name": "createExpense",
      "outputs": [
        {
          "internalType": "string",
          "name": "",
          "type": "string"
        },
        {
          "internalType": "string",
          "name": "",
          "type": "string"
        }
      ],
      "stateMutability": "payable",
      "type": "function",
      "payable": true
    },
    {
      "inputs": [
        {
          "internalType": "string",
          "name": "blockHash",
          "type": "string"
        },
        {
          "internalType": "string",
          "name": "reason",
          "type": "string"
        },
        {
          "internalType": "address payable",
          "name": "from",
          "type": "address"
        }
      ],
      "name": "updateExpense",
      "outputs": [
        {
          "internalType": "string",
          "name": "",
          "type": "string"
        },
        {
          "internalType": "string",
          "name": "",
          "type": "string"
        }
      ],
      "stateMutability": "payable",
      "type": "function",
      "payable": true
    },
    {
      "inputs": [
        {
          "internalType": "string",
          "name": "blockHash",
          "type": "string"
        }
      ],
      "name": "getExpenseByHash",
      "outputs": [
        {
          "components": [
            {
              "internalType": "string",
              "name": "blockHash",
              "type": "string"
            },
            {
              "internalType": "string",
              "name": "reason",
              "type": "string"
            }
          ],
          "internalType": "struct fundEth.ExpenseReason",
          "name": "",
          "type": "tuple"
        }
      ],
      "stateMutability": "view",
      "type": "function",
      "constant": true
    },
    {
      "inputs": [
        {
          "internalType": "address",
          "name": "of_address",
          "type": "address"
        }
      ],
      "name": "getExpensesOf",
      "outputs": [
        {
          "components": [
            {
              "internalType": "string",
              "name": "blockHash",
              "type": "string"
            },
            {
              "internalType": "string",
              "name": "reason",
              "type": "string"
            }
          ],
          "internalType": "struct fundEth.ExpenseReason[]",
          "name": "",
          "type": "tuple[]"
        }
      ],
      "stateMutability": "view",
      "type": "function",
      "constant": true
    }
  ],
  "bytecode": "0x6080604052600160005534801561001557600080fd5b5061307c806100256000396000f3fe60806040526004361061009c5760003560e01c80638ff6f6bb116100645780638ff6f6bb146101c8578063a1128da4146101f8578063da10b9d514610235578063e889868814610266578063f1295586146102ad578063fc506117146102f45761009c565b80630c56e613146100a15780632f57b112146100df578063618e81471461011c578063631d88ce1461015a578063814075f41461018b575b600080fd5b3480156100ad57600080fd5b506100c860048036038101906100c391906123c0565b610331565b6040516100d6929190612491565b60405180910390f35b3480156100eb57600080fd5b5061010660048036038101906101019190612526565b61047b565b60405161011391906126a3565b60405180910390f35b34801561012857600080fd5b50610143600480360381019061013e91906126fb565b61063d565b604051610151929190612491565b60405180910390f35b610174600480360381019061016f9190612779565b61078e565b604051610182929190612491565b60405180910390f35b34801561019757600080fd5b506101b260048036038101906101ad9190612526565b610b08565b6040516101bf91906129f5565b60405180910390f35b6101e260048036038101906101dd9190612a43565b610ddf565b6040516101ef9190612c13565b60405180910390f35b34801561020457600080fd5b5061021f600480360381019061021a91906123c0565b6116df565b60405161022c9190612c79565b60405180910390f35b61024f600480360381019061024a9190612779565b611841565b60405161025d929190612491565b60405180910390f35b34801561027257600080fd5b5061028d600480360381019061028891906126fb565b611b0e565b6040516102a49b9a99989796959493929190612cc8565b60405180910390f35b3480156102b957600080fd5b506102d460048036038101906102cf9190612d81565b611cef565b6040516102eb9b9a99989796959493929190612cc8565b60405180910390f35b34801561030057600080fd5b5061031b60048036038101906103169190612d81565b611eb3565b6040516103289190612c13565b60405180910390f35b60048180516020810182018051848252602083016020850120818352809550505050505060009150905080600001805461036a90612ddd565b80601f016020809104026020016040519081016040528092919081815260200182805461039690612ddd565b80156103e35780601f106103b8576101008083540402835291602001916103e3565b820191906000526020600020905b8154815290600101906020018083116103c657829003601f168201915b5050505050908060010180546103f890612ddd565b80601f016020809104026020016040519081016040528092919081815260200182805461042490612ddd565b80156104715780601f1061044657610100808354040283529160200191610471565b820191906000526020600020905b81548152906001019060200180831161045457829003601f168201915b5050505050905082565b6060600360008373ffffffffffffffffffffffffffffffffffffffff1673ffffffffffffffffffffffffffffffffffffffff168152602001908152602001600020805480602002602001604051908101604052809291908181526020016000905b82821015610632578382906000526020600020906002020160405180604001604052908160008201805461050f90612ddd565b80601f016020809104026020016040519081016040528092919081815260200182805461053b90612ddd565b80156105885780601f1061055d57610100808354040283529160200191610588565b820191906000526020600020905b81548152906001019060200180831161056b57829003601f168201915b505050505081526020016001820180546105a190612ddd565b80601f01602080910402602001604051908101604052809291908181526020018280546105cd90612ddd565b801561061a5780601f106105ef5761010080835404028352916020019161061a565b820191906000526020600020905b8154815290600101906020018083116105fd57829003601f168201915b505050505081525050815260200190600101906104dc565b505050509050919050565b6003602052816000526040600020818154811061065957600080fd5b90600052602060002090600202016000915091505080600001805461067d90612ddd565b80601f01602080910402602001604051908101604052809291908181526020018280546106a990612ddd565b80156106f65780601f106106cb576101008083540402835291602001916106f6565b820191906000526020600020905b8154815290600101906020018083116106d957829003601f168201915b50505050509080600101805461070b90612ddd565b80601f016020809104026020016040519081016040528092919081815260200182805461073790612ddd565b80156107845780601f1061075957610100808354040283529160200191610784565b820191906000526020600020905b81548152906001019060200180831161076757829003601f168201915b5050505050905082565b6060808273ffffffffffffffffffffffffffffffffffffffff166108fc349081150290604051600060405180830381858888f193505050501580156107d7573d6000803e3d6000fd5b5060005b600360008573ffffffffffffffffffffffffffffffffffffffff1673ffffffffffffffffffffffffffffffffffffffff1681526020019081526020016000208054905081101561096957856040516020016108369190612e4b565b60405160208183030381529060405280519060200120600360008673ffffffffffffffffffffffffffffffffffffffff1673ffffffffffffffffffffffffffffffffffffffff168152602001908152602001600020828154811061089d5761089c612e62565b5b90600052602060002090600202016000016040516020016108be9190612f25565b6040516020818303038152906040528051906020012014156109565784600360008673ffffffffffffffffffffffffffffffffffffffff1673ffffffffffffffffffffffffffffffffffffffff168152602001908152602001600020828154811061092c5761092b612e62565b5b9060005260206000209060020201600101908051906020019061095092919061211f565b50610969565b808061096190612f6b565b9150506107db565b508360048660405161097b9190612e4b565b9081526020016040518091039020600101908051906020019061099f92919061211f565b5060006004866040516109b29190612e4b565b90815260200160405180910390206040518060400160405290816000820180546109db90612ddd565b80601f0160208091040260200160405190810160405280929190818152602001828054610a0790612ddd565b8015610a545780601f10610a2957610100808354040283529160200191610a54565b820191906000526020600020905b815481529060010190602001808311610a3757829003601f168201915b50505050508152602001600182018054610a6d90612ddd565b80601f0160208091040260200160405190810160405280929190818152602001828054610a9990612ddd565b8015610ae65780601f10610abb57610100808354040283529160200191610ae6565b820191906000526020600020905b815481529060010190602001808311610ac957829003601f168201915b5050505050815250509050806000015181602001519250925050935093915050565b6060600160008373ffffffffffffffffffffffffffffffffffffffff1673ffffffffffffffffffffffffffffffffffffffff168152602001908152602001600020805480602002602001604051908101604052809291908181526020016000905b82821015610dd457838290600052602060002090600b020160405180610160016040529081600082015481526020016001820160009054906101000a900473ffffffffffffffffffffffffffffffffffffffff1673ffffffffffffffffffffffffffffffffffffffff1673ffffffffffffffffffffffffffffffffffffffff1681526020016002820160009054906101000a900473ffffffffffffffffffffffffffffffffffffffff1673ffffffffffffffffffffffffffffffffffffffff1673ffffffffffffffffffffffffffffffffffffffff16815260200160038201548152602001600482015481526020016005820160009054906101000a900460ff16151515158152602001600682018054610c8290612ddd565b80601f0160208091040260200160405190810160405280929190818152602001828054610cae90612ddd565b8015610cfb5780601f10610cd057610100808354040283529160200191610cfb565b820191906000526020600020905b815481529060010190602001808311610cde57829003601f168201915b5050505050815260200160078201548152602001600882018054610d1e90612ddd565b80601f0160208091040260200160405190810160405280929190818152602001828054610d4a90612ddd565b8015610d975780601f10610d6c57610100808354040283529160200191610d97565b820191906000526020600020905b815481529060010190602001808311610d7a57829003601f168201915b5050505050815260200160098201548152602001600a820160009054906101000a900460ff16151515158152505081526020019060010190610b69565b505050509050919050565b610de76121a5565b60003411610e2a576040517f08c379a0000000000000000000000000000000000000000000000000000000008152600401610e2190613026565b60405180910390fd5b8773ffffffffffffffffffffffffffffffffffffffff166108fc349081150290604051600060405180830381858888f19350505050158015610e70573d6000803e3d6000fd5b50610e796121a5565b8615610f3b5760405180610160016040528060005481526020013373ffffffffffffffffffffffffffffffffffffffff1681526020018a73ffffffffffffffffffffffffffffffffffffffff16815260200134815260200189815260200188151581526020016040518060400160405280600981526020017f416e6f6e796d6f75730000000000000000000000000000000000000000000000815250815260200160008152602001858152602001848152602001600115158152509050610fbd565b60405180610160016040528060005481526020013373ffffffffffffffffffffffffffffffffffffffff1681526020018a73ffffffffffffffffffffffffffffffffffffffff16815260200134815260200189815260200188151581526020018781526020018681526020018581526020018481526020016001151581525090505b600160003373ffffffffffffffffffffffffffffffffffffffff1673ffffffffffffffffffffffffffffffffffffffff1681526020019081526020016000208190806001815401808255809150506001900390600052602060002090600b02016000909190919091506000820151816000015560208201518160010160006101000a81548173ffffffffffffffffffffffffffffffffffffffff021916908373ffffffffffffffffffffffffffffffffffffffff16021790555060408201518160020160006101000a81548173ffffffffffffffffffffffffffffffffffffffff021916908373ffffffffffffffffffffffffffffffffffffffff160217905550606082015181600301556080820151816004015560a08201518160050160006101000a81548160ff02191690831515021790555060c082015181600601908051906020019061110e92919061211f565b5060e0820151816007015561010082015181600801908051906020019061113692919061211f565b50610120820151816009015561014082015181600a0160006101000a81548160ff0219169083151502179055505050600160008a73ffffffffffffffffffffffffffffffffffffffff1673ffffffffffffffffffffffffffffffffffffffff1681526020019081526020016000208190806001815401808255809150506001900390600052602060002090600b02016000909190919091506000820151816000015560208201518160010160006101000a81548173ffffffffffffffffffffffffffffffffffffffff021916908373ffffffffffffffffffffffffffffffffffffffff16021790555060408201518160020160006101000a81548173ffffffffffffffffffffffffffffffffffffffff021916908373ffffffffffffffffffffffffffffffffffffffff160217905550606082015181600301556080820151816004015560a08201518160050160006101000a81548160ff02191690831515021790555060c08201518160060190805190602001906112b692919061211f565b5060e082015181600701556101008201518160080190805190602001906112de92919061211f565b50610120820151816009015561014082015181600a0160006101000a81548160ff02191690831515021790555050508060026000805481526020019081526020016000206000820151816000015560208201518160010160006101000a81548173ffffffffffffffffffffffffffffffffffffffff021916908373ffffffffffffffffffffffffffffffffffffffff16021790555060408201518160020160006101000a81548173ffffffffffffffffffffffffffffffffffffffff021916908373ffffffffffffffffffffffffffffffffffffffff160217905550606082015181600301556080820151816004015560a08201518160050160006101000a81548160ff02191690831515021790555060c082015181600601908051906020019061140a92919061211f565b5060e0820151816007015561010082015181600801908051906020019061143292919061211f565b50610120820151816009015561014082015181600a0160006101000a81548160ff02191690831515021790555090505060008081548092919061147490612f6b565b9190505550600260008054815260200190815260200160002060405180610160016040529081600082015481526020016001820160009054906101000a900473ffffffffffffffffffffffffffffffffffffffff1673ffffffffffffffffffffffffffffffffffffffff1673ffffffffffffffffffffffffffffffffffffffff1681526020016002820160009054906101000a900473ffffffffffffffffffffffffffffffffffffffff1673ffffffffffffffffffffffffffffffffffffffff1673ffffffffffffffffffffffffffffffffffffffff16815260200160038201548152602001600482015481526020016005820160009054906101000a900460ff1615151515815260200160068201805461158e90612ddd565b80601f01602080910402602001604051908101604052809291908181526020018280546115ba90612ddd565b80156116075780601f106115dc57610100808354040283529160200191611607565b820191906000526020600020905b8154815290600101906020018083116115ea57829003601f168201915b505050505081526020016007820154815260200160088201805461162a90612ddd565b80601f016020809104026020016040519081016040528092919081815260200182805461165690612ddd565b80156116a35780601f10611678576101008083540402835291602001916116a3565b820191906000526020600020905b81548152906001019060200180831161168657829003601f168201915b5050505050815260200160098201548152602001600a820160009054906101000a900460ff161515151581525050915050979650505050505050565b6116e761222f565b60006004836040516116f99190612e4b565b908152602001604051809103902060405180604001604052908160008201805461172290612ddd565b80601f016020809104026020016040519081016040528092919081815260200182805461174e90612ddd565b801561179b5780601f106117705761010080835404028352916020019161179b565b820191906000526020600020905b81548152906001019060200180831161177e57829003601f168201915b505050505081526020016001820180546117b490612ddd565b80601f01602080910402602001604051908101604052809291908181526020018280546117e090612ddd565b801561182d5780601f106118025761010080835404028352916020019161182d565b820191906000526020600020905b81548152906001019060200180831161181057829003601f168201915b505050505081525050905080915050919050565b6060808273ffffffffffffffffffffffffffffffffffffffff166108fc349081150290604051600060405180830381858888f1935050505015801561188a573d6000803e3d6000fd5b5060006040518060400160405280878152602001868152509050600360008573ffffffffffffffffffffffffffffffffffffffff1673ffffffffffffffffffffffffffffffffffffffff168152602001908152602001600020819080600181540180825580915050600190039060005260206000209060020201600090919091909150600082015181600001908051906020019061192992919061211f565b50602082015181600101908051906020019061194692919061211f565b5050508060048760405161195a9190612e4b565b9081526020016040518091039020600082015181600001908051906020019061198492919061211f565b5060208201518160010190805190602001906119a192919061211f565b5090505060006004876040516119b79190612e4b565b90815260200160405180910390206040518060400160405290816000820180546119e090612ddd565b80601f0160208091040260200160405190810160405280929190818152602001828054611a0c90612ddd565b8015611a595780601f10611a2e57610100808354040283529160200191611a59565b820191906000526020600020905b815481529060010190602001808311611a3c57829003601f168201915b50505050508152602001600182018054611a7290612ddd565b80601f0160208091040260200160405190810160405280929190818152602001828054611a9e90612ddd565b8015611aeb5780601f10611ac057610100808354040283529160200191611aeb565b820191906000526020600020905b815481529060010190602001808311611ace57829003601f168201915b505050505081525050905080600001518160200151935093505050935093915050565b60016020528160005260406000208181548110611b2a57600080fd5b90600052602060002090600b0201600091509150508060000154908060010160009054906101000a900473ffffffffffffffffffffffffffffffffffffffff16908060020160009054906101000a900473ffffffffffffffffffffffffffffffffffffffff16908060030154908060040154908060050160009054906101000a900460ff1690806006018054611bbf90612ddd565b80601f0160208091040260200160405190810160405280929190818152602001828054611beb90612ddd565b8015611c385780601f10611c0d57610100808354040283529160200191611c38565b820191906000526020600020905b815481529060010190602001808311611c1b57829003601f168201915b505050505090806007015490806008018054611c5390612ddd565b80601f0160208091040260200160405190810160405280929190818152602001828054611c7f90612ddd565b8015611ccc5780601f10611ca157610100808354040283529160200191611ccc565b820191906000526020600020905b815481529060010190602001808311611caf57829003601f168201915b50505050509080600901549080600a0160009054906101000a900460ff1690508b565b60026020528060005260406000206000915090508060000154908060010160009054906101000a900473ffffffffffffffffffffffffffffffffffffffff16908060020160009054906101000a900473ffffffffffffffffffffffffffffffffffffffff16908060030154908060040154908060050160009054906101000a900460ff1690806006018054611d8390612ddd565b80601f0160208091040260200160405190810160405280929190818152602001828054611daf90612ddd565b8015611dfc5780601f10611dd157610100808354040283529160200191611dfc565b820191906000526020600020905b815481529060010190602001808311611ddf57829003601f168201915b505050505090806007015490806008018054611e1790612ddd565b80601f0160208091040260200160405190810160405280929190818152602001828054611e4390612ddd565b8015611e905780601f10611e6557610100808354040283529160200191611e90565b820191906000526020600020905b815481529060010190602001808311611e7357829003601f168201915b50505050509080600901549080600a0160009054906101000a900460ff1690508b565b611ebb6121a5565b60006002600084815260200190815260200160002060405180610160016040529081600082015481526020016001820160009054906101000a900473ffffffffffffffffffffffffffffffffffffffff1673ffffffffffffffffffffffffffffffffffffffff1673ffffffffffffffffffffffffffffffffffffffff1681526020016002820160009054906101000a900473ffffffffffffffffffffffffffffffffffffffff1673ffffffffffffffffffffffffffffffffffffffff1673ffffffffffffffffffffffffffffffffffffffff16815260200160038201548152602001600482015481526020016005820160009054906101000a900460ff16151515158152602001600682018054611fd190612ddd565b80601f0160208091040260200160405190810160405280929190818152602001828054611ffd90612ddd565b801561204a5780601f1061201f5761010080835404028352916020019161204a565b820191906000526020600020905b81548152906001019060200180831161202d57829003601f168201915b505050505081526020016007820154815260200160088201805461206d90612ddd565b80601f016020809104026020016040519081016040528092919081815260200182805461209990612ddd565b80156120e65780601f106120bb576101008083540402835291602001916120e6565b820191906000526020600020905b8154815290600101906020018083116120c957829003601f168201915b5050505050815260200160098201548152602001600a820160009054906101000a900460ff161515151581525050905080915050919050565b82805461212b90612ddd565b90600052602060002090601f01602090048101928261214d5760008555612194565b82601f1061216657805160ff1916838001178555612194565b82800160010185558215612194579182015b82811115612193578251825591602001919060010190612178565b5b5090506121a19190612249565b5090565b60405180610160016040528060008152602001600073ffffffffffffffffffffffffffffffffffffffff168152602001600073ffffffffffffffffffffffffffffffffffffffff1681526020016000815260200160008152602001600015158152602001606081526020016000815260200160608152602001600081526020016000151581525090565b604051806040016040528060608152602001606081525090565b5b8082111561226257600081600090555060010161224a565b5090565b6000604051905090565b600080fd5b600080fd5b600080fd5b600080fd5b6000601f19601f8301169050919050565b7f4e487b7100000000000000000000000000000000000000000000000000000000600052604160045260246000fd5b6122cd82612284565b810181811067ffffffffffffffff821117156122ec576122eb612295565b5b80604052505050565b60006122ff612266565b905061230b82826122c4565b919050565b600067ffffffffffffffff82111561232b5761232a612295565b5b61233482612284565b9050602081019050919050565b82818337600083830152505050565b600061236361235e84612310565b6122f5565b90508281526020810184848401111561237f5761237e61227f565b5b61238a848285612341565b509392505050565b600082601f8301126123a7576123a661227a565b5b81356123b7848260208601612350565b91505092915050565b6000602082840312156123d6576123d5612270565b5b600082013567ffffffffffffffff8111156123f4576123f3612275565b5b61240084828501612392565b91505092915050565b600081519050919050565b600082825260208201905092915050565b60005b83811015612443578082015181840152602081019050612428565b83811115612452576000848401525b50505050565b600061246382612409565b61246d8185612414565b935061247d818560208601612425565b61248681612284565b840191505092915050565b600060408201905081810360008301526124ab8185612458565b905081810360208301526124bf8184612458565b90509392505050565b600073ffffffffffffffffffffffffffffffffffffffff82169050919050565b60006124f3826124c8565b9050919050565b612503816124e8565b811461250e57600080fd5b50565b600081359050612520816124fa565b92915050565b60006020828403121561253c5761253b612270565b5b600061254a84828501612511565b91505092915050565b600081519050919050565b600082825260208201905092915050565b6000819050602082019050919050565b600082825260208201905092915050565b600061259b82612409565b6125a5818561257f565b93506125b5818560208601612425565b6125be81612284565b840191505092915050565b600060408301600083015184820360008601526125e68282612590565b915050602083015184820360208601526126008282612590565b9150508091505092915050565b600061261983836125c9565b905092915050565b6000602082019050919050565b600061263982612553565b612643818561255e565b9350836020820285016126558561256f565b8060005b858110156126915784840389528151612672858261260d565b945061267d83612621565b925060208a01995050600181019050612659565b50829750879550505050505092915050565b600060208201905081810360008301526126bd818461262e565b905092915050565b6000819050919050565b6126d8816126c5565b81146126e357600080fd5b50565b6000813590506126f5816126cf565b92915050565b6000806040838503121561271257612711612270565b5b600061272085828601612511565b9250506020612731858286016126e6565b9150509250929050565b6000612746826124c8565b9050919050565b6127568161273b565b811461276157600080fd5b50565b6000813590506127738161274d565b92915050565b60008060006060848603121561279257612791612270565b5b600084013567ffffffffffffffff8111156127b0576127af612275565b5b6127bc86828701612392565b935050602084013567ffffffffffffffff8111156127dd576127dc612275565b5b6127e986828701612392565b92505060406127fa86828701612764565b9150509250925092565b600081519050919050565b600082825260208201905092915050565b6000819050602082019050919050565b612839816126c5565b82525050565b612848816124e8565b82525050565b60008115159050919050565b6128638161284e565b82525050565b6000610160830160008301516128826000860182612830565b506020830151612895602086018261283f565b5060408301516128a8604086018261283f565b5060608301516128bb6060860182612830565b5060808301516128ce6080860182612830565b5060a08301516128e160a086018261285a565b5060c083015184820360c08601526128f98282612590565b91505060e083015161290e60e0860182612830565b506101008301518482036101008601526129288282612590565b91505061012083015161293f610120860182612830565b5061014083015161295461014086018261285a565b508091505092915050565b600061296b8383612869565b905092915050565b6000602082019050919050565b600061298b82612804565b612995818561280f565b9350836020820285016129a785612820565b8060005b858110156129e357848403895281516129c4858261295f565b94506129cf83612973565b925060208a019950506001810190506129ab565b50829750879550505050505092915050565b60006020820190508181036000830152612a0f8184612980565b905092915050565b612a208161284e565b8114612a2b57600080fd5b50565b600081359050612a3d81612a17565b92915050565b600080600080600080600060e0888a031215612a6257612a61612270565b5b6000612a708a828b01612764565b9750506020612a818a828b016126e6565b9650506040612a928a828b01612a2e565b955050606088013567ffffffffffffffff811115612ab357612ab2612275565b5b612abf8a828b01612392565b9450506080612ad08a828b016126e6565b93505060a088013567ffffffffffffffff811115612af157612af0612275565b5b612afd8a828b01612392565b92505060c0612b0e8a828b016126e6565b91505092959891949750929550565b600061016083016000830151612b366000860182612830565b506020830151612b49602086018261283f565b506040830151612b5c604086018261283f565b506060830151612b6f6060860182612830565b506080830151612b826080860182612830565b5060a0830151612b9560a086018261285a565b5060c083015184820360c0860152612bad8282612590565b91505060e0830151612bc260e0860182612830565b50610100830151848203610100860152612bdc8282612590565b915050610120830151612bf3610120860182612830565b50610140830151612c0861014086018261285a565b508091505092915050565b60006020820190508181036000830152612c2d8184612b1d565b905092915050565b60006040830160008301518482036000860152612c528282612590565b91505060208301518482036020860152612c6c8282612590565b9150508091505092915050565b60006020820190508181036000830152612c938184612c35565b905092915050565b612ca4816126c5565b82525050565b612cb3816124e8565b82525050565b612cc28161284e565b82525050565b600061016082019050612cde600083018e612c9b565b612ceb602083018d612caa565b612cf8604083018c612caa565b612d05606083018b612c9b565b612d12608083018a612c9b565b612d1f60a0830189612cb9565b81810360c0830152612d318188612458565b9050612d4060e0830187612c9b565b818103610100830152612d538186612458565b9050612d63610120830185612c9b565b612d71610140830184612cb9565b9c9b505050505050505050505050565b600060208284031215612d9757612d96612270565b5b6000612da5848285016126e6565b91505092915050565b7f4e487b7100000000000000000000000000000000000000000000000000000000600052602260045260246000fd5b60006002820490506001821680612df557607f821691505b60208210811415612e0957612e08612dae565b5b50919050565b600081905092915050565b6000612e2582612409565b612e2f8185612e0f565b9350612e3f818560208601612425565b80840191505092915050565b6000612e578284612e1a565b915081905092915050565b7f4e487b7100000000000000000000000000000000000000000000000000000000600052603260045260246000fd5b60008190508160005260206000209050919050565b60008154612eb381612ddd565b612ebd8186612e0f565b94506001821660008114612ed85760018114612ee957612f1c565b60ff19831686528186019350612f1c565b612ef285612e91565b60005b83811015612f1457815481890152600182019150602081019050612ef5565b838801955050505b50505092915050565b6000612f318284612ea6565b915081905092915050565b7f4e487b7100000000000000000000000000000000000000000000000000000000600052601160045260246000fd5b6000612f76826126c5565b91507fffffffffffffffffffffffffffffffffffffffffffffffffffffffffffffffff821415612fa957612fa8612f3c565b5b600182019050919050565b7f73656e646572206d7573742073656e6420736f6d652076616c7565206772656160008201527f746572207468616e203020776569000000000000000000000000000000000000602082015250565b6000613010602e83612414565b915061301b82612fb4565b604082019050919050565b6000602082019050818103600083015261303f81613003565b905091905056fea26469706673582212206522abb0b129e761ade2ea02363f75a051bc249d3503381fe6d4642576d0ecb464736f6c634300080b0033",
  "immutableReferences": {},
  "source": "// SPDX-License-Identifier: MIT\r\npragma solidity 0.8.11;\r\n\r\ncontract fundEth {\r\n    uint donation_id = 1;\r\n\r\n    struct Donation {\r\n        uint donation_id;\r\n        address from_address;\r\n        address to_address;\r\n        uint eth_in_wei;\r\n        uint256 date;\r\n        bool anonymous_state;\r\n        string doner;\r\n        uint donerId;\r\n        string charity;\r\n        uint charityId;\r\n        bool donated;\r\n    }\r\n\r\n    struct ExpenseReason {\r\n        string blockHash;\r\n        string reason;\r\n    }\r\n\r\n    mapping(address => Donation[]) public Donations;\r\n    mapping(uint => Donation) public DonationsById;\r\n\r\n    mapping(address => ExpenseReason[]) public ExpenseReasons;\r\n    mapping(string => ExpenseReason) public ExpenseReasonByHash;\r\n\r\n    function createDonation(address payable to_address, uint256 date, bool anonymous_state, string memory doner, uint donerId, string memory charity, uint charityId) public payable returns(Donation memory) {\r\n        require(msg.value > 0, \"sender must send some value greater than 0 wei\");   \r\n        to_address.transfer(msg.value);\r\n            Donation memory donation_data;\r\n        if(anonymous_state)\r\n            donation_data = Donation(donation_id, msg.sender, to_address, msg.value, date, anonymous_state, \"Anonymous\", 0, charity, charityId, true);\r\n        else\r\n            donation_data = Donation(donation_id, msg.sender, to_address, msg.value, date, anonymous_state, doner, donerId, charity, charityId, true);\r\n        Donations[msg.sender].push(donation_data);\r\n        Donations[to_address].push(donation_data);\r\n        DonationsById[donation_id] = donation_data;\r\n        donation_id++;\r\n        return  DonationsById[donation_id];\r\n    }\r\n\r\n    function getDonationsOf(address of_address) public view returns(Donation[] memory) {\r\n        return Donations[of_address];\r\n    }\r\n\r\n    function getDonationByID(uint d_id) public view returns(Donation memory) {\r\n        Donation memory d = DonationsById[d_id];\r\n        return d;\r\n    }\r\n\r\n    function createExpense(string memory blockHash, string memory reason, address payable from) public payable returns(string memory, string memory) {\r\n        from.transfer(msg.value);\r\n        ExpenseReason memory exReason = ExpenseReason(blockHash, reason);\r\n        ExpenseReasons[from].push(exReason);\r\n        ExpenseReasonByHash[blockHash] = exReason;\r\n        ExpenseReason memory rs = ExpenseReasonByHash[blockHash];\r\n        return (rs.blockHash, rs.reason);\r\n    }\r\n\r\n    function updateExpense(string memory blockHash, string memory reason, address payable from) public payable returns(string memory, string memory) {\r\n        from.transfer(msg.value);\r\n        // ExpenseReason[] memory exps = ExpenseReasons[from];\r\n        for(uint i=0; i<ExpenseReasons[from].length; i++)\r\n            if(keccak256(abi.encodePacked((ExpenseReasons[from][i].blockHash))) == keccak256(abi.encodePacked((blockHash)))) {\r\n                ExpenseReasons[from][i].reason = reason;\r\n                break;\r\n            }\r\n        ExpenseReasonByHash[blockHash].reason = reason;\r\n        ExpenseReason memory rs = ExpenseReasonByHash[blockHash];\r\n        return (rs.blockHash, rs.reason);\r\n    }\r\n\r\n    function getExpenseByHash(string memory blockHash) public view returns(ExpenseReason memory) {\r\n        ExpenseReason memory rs = ExpenseReasonByHash[blockHash];\r\n        return rs;\r\n    }\r\n\r\n    function getExpensesOf(address of_address) public view returns(ExpenseReason[] memory) {\r\n        return ExpenseReasons[of_address];\r\n    }\r\n}",
  "sourcePath": "D:\\Jay\\Projects\\Personal\\Fund Tracking\\Frontend\\charity-fund-tracker-webapp\\src\\contracts\\fundEth.sol",
  "compiler": {
    "name": "solc",
    "version": "0.8.11+commit.d7f03943.Emscripten.clang"
  },
  "schemaVersion": "3.4.4",
  "updatedAt": "2022-07-18T12:55:09.363Z",
  "networkType": "ethereum",
  "devdoc": {
    "kind": "dev",
    "methods": {},
    "version": 1
  },
  "userdoc": {
    "kind": "user",
    "methods": {},
    "version": 1
  }
}