{
  "contractName": "fundEth",
  "abi": [
    {
      "inputs": [
        {
          "internalType": "address",
          "name": "",
          "type": "address"
        },
        {
          "internalType": "uint256",
          "name": "",
          "type": "uint256"
        }
      ],
      "name": "Donations",
      "outputs": [
        {
          "internalType": "uint256",
          "name": "donation_id",
          "type": "uint256"
        },
        {
          "internalType": "address",
          "name": "from_address",
          "type": "address"
        },
        {
          "internalType": "address",
          "name": "to_address",
          "type": "address"
        },
        {
          "internalType": "uint256",
          "name": "eth_in_wei",
          "type": "uint256"
        },
        {
          "internalType": "uint256",
          "name": "date",
          "type": "uint256"
        },
        {
          "internalType": "bool",
          "name": "anonymous_state",
          "type": "bool"
        },
        {
          "internalType": "string",
          "name": "doner",
          "type": "string"
        },
        {
          "internalType": "uint256",
          "name": "donerId",
          "type": "uint256"
        },
        {
          "internalType": "string",
          "name": "charity",
          "type": "string"
        },
        {
          "internalType": "uint256",
          "name": "charityId",
          "type": "uint256"
        },
        {
          "internalType": "bool",
          "name": "donated",
          "type": "bool"
        }
      ],
      "stateMutability": "view",
      "type": "function",
      "constant": true
    },
    {
      "inputs": [
        {
          "internalType": "uint256",
          "name": "",
          "type": "uint256"
        }
      ],
      "name": "DonationsById",
      "outputs": [
        {
          "internalType": "uint256",
          "name": "donation_id",
          "type": "uint256"
        },
        {
          "internalType": "address",
          "name": "from_address",
          "type": "address"
        },
        {
          "internalType": "address",
          "name": "to_address",
          "type": "address"
        },
        {
          "internalType": "uint256",
          "name": "eth_in_wei",
          "type": "uint256"
        },
        {
          "internalType": "uint256",
          "name": "date",
          "type": "uint256"
        },
        {
          "internalType": "bool",
          "name": "anonymous_state",
          "type": "bool"
        },
        {
          "internalType": "string",
          "name": "doner",
          "type": "string"
        },
        {
          "internalType": "uint256",
          "name": "donerId",
          "type": "uint256"
        },
        {
          "internalType": "string",
          "name": "charity",
          "type": "string"
        },
        {
          "internalType": "uint256",
          "name": "charityId",
          "type": "uint256"
        },
        {
          "internalType": "bool",
          "name": "donated",
          "type": "bool"
        }
      ],
      "stateMutability": "view",
      "type": "function",
      "constant": true
    },
    {
      "inputs": [
        {
          "internalType": "string",
          "name": "",
          "type": "string"
        }
      ],
      "name": "ExpenseReasonByHash",
      "outputs": [
        {
          "internalType": "string",
          "name": "blockHash",
          "type": "string"
        },
        {
          "internalType": "string",
          "name": "reason",
          "type": "string"
        }
      ],
      "stateMutability": "view",
      "type": "function",
      "constant": true
    },
    {
      "inputs": [
        {
          "internalType": "address",
          "name": "",
          "type": "address"
        },
        {
          "internalType": "uint256",
          "name": "",
          "type": "uint256"
        }
      ],
      "name": "ExpenseReasons",
      "outputs": [
        {
          "internalType": "string",
          "name": "blockHash",
          "type": "string"
        },
        {
          "internalType": "string",
          "name": "reason",
          "type": "string"
        }
      ],
      "stateMutability": "view",
      "type": "function",
      "constant": true
    },
    {
      "inputs": [
        {
          "internalType": "address payable",
          "name": "to_address",
          "type": "address"
        },
        {
          "internalType": "uint256",
          "name": "date",
          "type": "uint256"
        },
        {
          "internalType": "bool",
          "name": "anonymous_state",
          "type": "bool"
        },
        {
          "internalType": "string",
          "name": "doner",
          "type": "string"
        },
        {
          "internalType": "uint256",
          "name": "donerId",
          "type": "uint256"
        },
        {
          "internalType": "string",
          "name": "charity",
          "type": "string"
        },
        {
          "internalType": "uint256",
          "name": "charityId",
          "type": "uint256"
        }
      ],
      "name": "createDonation",
      "outputs": [
        {
          "components": [
            {
              "internalType": "uint256",
              "name": "donation_id",
              "type": "uint256"
            },
            {
              "internalType": "address",
              "name": "from_address",
              "type": "address"
            },
            {
              "internalType": "address",
              "name": "to_address",
              "type": "address"
            },
            {
              "internalType": "uint256",
              "name": "eth_in_wei",
              "type": "uint256"
            },
            {
              "internalType": "uint256",
              "name": "date",
              "type": "uint256"
            },
            {
              "internalType": "bool",
              "name": "anonymous_state",
              "type": "bool"
            },
            {
              "internalType": "string",
              "name": "doner",
              "type": "string"
            },
            {
              "internalType": "uint256",
              "name": "donerId",
              "type": "uint256"
            },
            {
              "internalType": "string",
              "name": "charity",
              "type": "string"
            },
            {
              "internalType": "uint256",
              "name": "charityId",
              "type": "uint256"
            },
            {
              "internalType": "bool",
              "name": "donated",
              "type": "bool"
            }
          ],
          "internalType": "struct fundEth.Donation",
          "name": "",
          "type": "tuple"
        }
      ],
      "stateMutability": "payable",
      "type": "function",
      "payable": true
    },
    {
      "inputs": [
        {
          "internalType": "address",
          "name": "of_address",
          "type": "address"
        }
      ],
      "name": "getDonationsOf",
      "outputs": [
        {
          "components": [
            {
              "internalType": "uint256",
              "name": "donation_id",
              "type": "uint256"
            },
            {
              "internalType": "address",
              "name": "from_address",
              "type": "address"
            },
            {
              "internalType": "address",
              "name": "to_address",
              "type": "address"
            },
            {
              "internalType": "uint256",
              "name": "eth_in_wei",
              "type": "uint256"
            },
            {
              "internalType": "uint256",
              "name": "date",
              "type": "uint256"
            },
            {
              "internalType": "bool",
              "name": "anonymous_state",
              "type": "bool"
            },
            {
              "internalType": "string",
              "name": "doner",
              "type": "string"
            },
            {
              "internalType": "uint256",
              "name": "donerId",
              "type": "uint256"
            },
            {
              "internalType": "string",
              "name": "charity",
              "type": "string"
            },
            {
              "internalType": "uint256",
              "name": "charityId",
              "type": "uint256"
            },
            {
              "internalType": "bool",
              "name": "donated",
              "type": "bool"
            }
          ],
          "internalType": "struct fundEth.Donation[]",
          "name": "",
          "type": "tuple[]"
        }
      ],
      "stateMutability": "view",
      "type": "function",
      "constant": true
    },
    {
      "inputs": [
        {
          "internalType": "uint256",
          "name": "d_id",
          "type": "uint256"
        }
      ],
      "name": "getDonationByID",
      "outputs": [
        {
          "internalType": "uint256",
          "name": "",
          "type": "uint256"
        },
        {
          "internalType": "address",
          "name": "",
          "type": "address"
        },
        {
          "internalType": "address",
          "name": "",
          "type": "address"
        },
        {
          "internalType": "uint256",
          "name": "",
          "type": "uint256"
        },
        {
          "internalType": "uint256",
          "name": "",
          "type": "uint256"
        },
        {
          "internalType": "bool",
          "name": "",
          "type": "bool"
        },
        {
          "internalType": "string",
          "name": "",
          "type": "string"
        },
        {
          "internalType": "uint256",
          "name": "",
          "type": "uint256"
        },
        {
          "internalType": "string",
          "name": "",
          "type": "string"
        },
        {
          "internalType": "uint256",
          "name": "",
          "type": "uint256"
        }
      ],
      "stateMutability": "view",
      "type": "function",
      "constant": true
    },
    {
      "inputs": [
        {
          "internalType": "string",
          "name": "blockHash",
          "type": "string"
        },
        {
          "internalType": "string",
          "name": "reason",
          "type": "string"
        },
        {
          "internalType": "address payable",
          "name": "from",
          "type": "address"
        }
      ],
      "name": "createExpense",
      "outputs": [
        {
          "components": [
            {
              "internalType": "string",
              "name": "blockHash",
              "type": "string"
            },
            {
              "internalType": "string",
              "name": "reason",
              "type": "string"
            }
          ],
          "internalType": "struct fundEth.ExpenseReason",
          "name": "",
          "type": "tuple"
        }
      ],
      "stateMutability": "nonpayable",
      "type": "function"
    },
    {
      "inputs": [
        {
          "internalType": "string",
          "name": "blockHash",
          "type": "string"
        }
      ],
      "name": "getExpenseByHash",
      "outputs": [
        {
          "components": [
            {
              "internalType": "string",
              "name": "blockHash",
              "type": "string"
            },
            {
              "internalType": "string",
              "name": "reason",
              "type": "string"
            }
          ],
          "internalType": "struct fundEth.ExpenseReason",
          "name": "",
          "type": "tuple"
        }
      ],
      "stateMutability": "view",
      "type": "function",
      "constant": true
    },
    {
      "inputs": [
        {
          "internalType": "address",
          "name": "of_address",
          "type": "address"
        }
      ],
      "name": "getExpensesOf",
      "outputs": [
        {
          "components": [
            {
              "internalType": "string",
              "name": "blockHash",
              "type": "string"
            },
            {
              "internalType": "string",
              "name": "reason",
              "type": "string"
            }
          ],
          "internalType": "struct fundEth.ExpenseReason[]",
          "name": "",
          "type": "tuple[]"
        }
      ],
      "stateMutability": "view",
      "type": "function",
      "constant": true
    }
  ],
  "bytecode": "0x6080604052600160005534801561001557600080fd5b50612cfa806100256000396000f3fe6080604052600436106100915760003560e01c8063a1128da411610059578063a1128da4146101bc578063da10b9d5146101f9578063e889868814610236578063f12955861461027d578063fc506117146102c457610091565b80630c56e613146100965780632f57b112146100d4578063618e814714610111578063814075f41461014f5780638ff6f6bb1461018c575b600080fd5b3480156100a257600080fd5b506100bd60048036038101906100b8919061206e565b61030a565b6040516100cb92919061213f565b60405180910390f35b3480156100e057600080fd5b506100fb60048036038101906100f691906121d4565b610454565b6040516101089190612351565b60405180910390f35b34801561011d57600080fd5b50610138600480360381019061013391906123a9565b610616565b60405161014692919061213f565b60405180910390f35b34801561015b57600080fd5b50610176600480360381019061017191906121d4565b610767565b60405161018391906125da565b60405180910390f35b6101a660048036038101906101a19190612666565b610a3e565b6040516101b39190612836565b60405180910390f35b3480156101c857600080fd5b506101e360048036038101906101de919061206e565b61133e565b6040516101f0919061289c565b60405180910390f35b34801561020557600080fd5b50610220600480360381019061021b91906128be565b6114a0565b60405161022d919061289c565b60405180910390f35b34801561024257600080fd5b5061025d600480360381019061025891906123a9565b611767565b6040516102749b9a99989796959493929190612976565b60405180910390f35b34801561028957600080fd5b506102a4600480360381019061029f9190612a2f565b611948565b6040516102bb9b9a99989796959493929190612976565b60405180910390f35b3480156102d057600080fd5b506102eb60048036038101906102e69190612a2f565b611b0c565b6040516103019a99989796959493929190612a5c565b60405180910390f35b60058180516020810182018051848252602083016020850120818352809550505050505060009150905080600001805461034390612b35565b80601f016020809104026020016040519081016040528092919081815260200182805461036f90612b35565b80156103bc5780601f10610391576101008083540402835291602001916103bc565b820191906000526020600020905b81548152906001019060200180831161039f57829003601f168201915b5050505050908060010180546103d190612b35565b80601f01602080910402602001604051908101604052809291908181526020018280546103fd90612b35565b801561044a5780601f1061041f5761010080835404028352916020019161044a565b820191906000526020600020905b81548152906001019060200180831161042d57829003601f168201915b5050505050905082565b6060600460008373ffffffffffffffffffffffffffffffffffffffff1673ffffffffffffffffffffffffffffffffffffffff168152602001908152602001600020805480602002602001604051908101604052809291908181526020016000905b8282101561060b57838290600052602060002090600202016040518060400160405290816000820180546104e890612b35565b80601f016020809104026020016040519081016040528092919081815260200182805461051490612b35565b80156105615780601f1061053657610100808354040283529160200191610561565b820191906000526020600020905b81548152906001019060200180831161054457829003601f168201915b5050505050815260200160018201805461057a90612b35565b80601f01602080910402602001604051908101604052809291908181526020018280546105a690612b35565b80156105f35780601f106105c8576101008083540402835291602001916105f3565b820191906000526020600020905b8154815290600101906020018083116105d657829003601f168201915b505050505081525050815260200190600101906104b5565b505050509050919050565b6004602052816000526040600020818154811061063257600080fd5b90600052602060002090600202016000915091505080600001805461065690612b35565b80601f016020809104026020016040519081016040528092919081815260200182805461068290612b35565b80156106cf5780601f106106a4576101008083540402835291602001916106cf565b820191906000526020600020905b8154815290600101906020018083116106b257829003601f168201915b5050505050908060010180546106e490612b35565b80601f016020809104026020016040519081016040528092919081815260200182805461071090612b35565b801561075d5780601f106107325761010080835404028352916020019161075d565b820191906000526020600020905b81548152906001019060200180831161074057829003601f168201915b5050505050905082565b6060600260008373ffffffffffffffffffffffffffffffffffffffff1673ffffffffffffffffffffffffffffffffffffffff168152602001908152602001600020805480602002602001604051908101604052809291908181526020016000905b82821015610a3357838290600052602060002090600b020160405180610160016040529081600082015481526020016001820160009054906101000a900473ffffffffffffffffffffffffffffffffffffffff1673ffffffffffffffffffffffffffffffffffffffff1673ffffffffffffffffffffffffffffffffffffffff1681526020016002820160009054906101000a900473ffffffffffffffffffffffffffffffffffffffff1673ffffffffffffffffffffffffffffffffffffffff1673ffffffffffffffffffffffffffffffffffffffff16815260200160038201548152602001600482015481526020016005820160009054906101000a900460ff161515151581526020016006820180546108e190612b35565b80601f016020809104026020016040519081016040528092919081815260200182805461090d90612b35565b801561095a5780601f1061092f5761010080835404028352916020019161095a565b820191906000526020600020905b81548152906001019060200180831161093d57829003601f168201915b505050505081526020016007820154815260200160088201805461097d90612b35565b80601f01602080910402602001604051908101604052809291908181526020018280546109a990612b35565b80156109f65780601f106109cb576101008083540402835291602001916109f6565b820191906000526020600020905b8154815290600101906020018083116109d957829003601f168201915b5050505050815260200160098201548152602001600a820160009054906101000a900460ff161515151581525050815260200190600101906107c8565b505050509050919050565b610a46611dcd565b60003411610a89576040517f08c379a0000000000000000000000000000000000000000000000000000000008152600401610a8090612bd9565b60405180910390fd5b8773ffffffffffffffffffffffffffffffffffffffff166108fc349081150290604051600060405180830381858888f19350505050158015610acf573d6000803e3d6000fd5b50610ad8611dcd565b8615610b9a5760405180610160016040528060005481526020013373ffffffffffffffffffffffffffffffffffffffff1681526020018a73ffffffffffffffffffffffffffffffffffffffff16815260200134815260200189815260200188151581526020016040518060400160405280600981526020017f416e6f6e796d6f75730000000000000000000000000000000000000000000000815250815260200160008152602001858152602001848152602001600115158152509050610c1c565b60405180610160016040528060005481526020013373ffffffffffffffffffffffffffffffffffffffff1681526020018a73ffffffffffffffffffffffffffffffffffffffff16815260200134815260200189815260200188151581526020018781526020018681526020018581526020018481526020016001151581525090505b600260003373ffffffffffffffffffffffffffffffffffffffff1673ffffffffffffffffffffffffffffffffffffffff1681526020019081526020016000208190806001815401808255809150506001900390600052602060002090600b02016000909190919091506000820151816000015560208201518160010160006101000a81548173ffffffffffffffffffffffffffffffffffffffff021916908373ffffffffffffffffffffffffffffffffffffffff16021790555060408201518160020160006101000a81548173ffffffffffffffffffffffffffffffffffffffff021916908373ffffffffffffffffffffffffffffffffffffffff160217905550606082015181600301556080820151816004015560a08201518160050160006101000a81548160ff02191690831515021790555060c0820151816006019080519060200190610d6d929190611e57565b5060e08201518160070155610100820151816008019080519060200190610d95929190611e57565b50610120820151816009015561014082015181600a0160006101000a81548160ff0219169083151502179055505050600260008a73ffffffffffffffffffffffffffffffffffffffff1673ffffffffffffffffffffffffffffffffffffffff1681526020019081526020016000208190806001815401808255809150506001900390600052602060002090600b02016000909190919091506000820151816000015560208201518160010160006101000a81548173ffffffffffffffffffffffffffffffffffffffff021916908373ffffffffffffffffffffffffffffffffffffffff16021790555060408201518160020160006101000a81548173ffffffffffffffffffffffffffffffffffffffff021916908373ffffffffffffffffffffffffffffffffffffffff160217905550606082015181600301556080820151816004015560a08201518160050160006101000a81548160ff02191690831515021790555060c0820151816006019080519060200190610f15929190611e57565b5060e08201518160070155610100820151816008019080519060200190610f3d929190611e57565b50610120820151816009015561014082015181600a0160006101000a81548160ff02191690831515021790555050508060036000805481526020019081526020016000206000820151816000015560208201518160010160006101000a81548173ffffffffffffffffffffffffffffffffffffffff021916908373ffffffffffffffffffffffffffffffffffffffff16021790555060408201518160020160006101000a81548173ffffffffffffffffffffffffffffffffffffffff021916908373ffffffffffffffffffffffffffffffffffffffff160217905550606082015181600301556080820151816004015560a08201518160050160006101000a81548160ff02191690831515021790555060c0820151816006019080519060200190611069929190611e57565b5060e08201518160070155610100820151816008019080519060200190611091929190611e57565b50610120820151816009015561014082015181600a0160006101000a81548160ff0219169083151502179055509050506000808154809291906110d390612c28565b9190505550600360008054815260200190815260200160002060405180610160016040529081600082015481526020016001820160009054906101000a900473ffffffffffffffffffffffffffffffffffffffff1673ffffffffffffffffffffffffffffffffffffffff1673ffffffffffffffffffffffffffffffffffffffff1681526020016002820160009054906101000a900473ffffffffffffffffffffffffffffffffffffffff1673ffffffffffffffffffffffffffffffffffffffff1673ffffffffffffffffffffffffffffffffffffffff16815260200160038201548152602001600482015481526020016005820160009054906101000a900460ff161515151581526020016006820180546111ed90612b35565b80601f016020809104026020016040519081016040528092919081815260200182805461121990612b35565b80156112665780601f1061123b57610100808354040283529160200191611266565b820191906000526020600020905b81548152906001019060200180831161124957829003601f168201915b505050505081526020016007820154815260200160088201805461128990612b35565b80601f01602080910402602001604051908101604052809291908181526020018280546112b590612b35565b80156113025780601f106112d757610100808354040283529160200191611302565b820191906000526020600020905b8154815290600101906020018083116112e557829003601f168201915b5050505050815260200160098201548152602001600a820160009054906101000a900460ff161515151581525050915050979650505050505050565b611346611edd565b60006005836040516113589190612cad565b908152602001604051809103902060405180604001604052908160008201805461138190612b35565b80601f01602080910402602001604051908101604052809291908181526020018280546113ad90612b35565b80156113fa5780601f106113cf576101008083540402835291602001916113fa565b820191906000526020600020905b8154815290600101906020018083116113dd57829003601f168201915b5050505050815260200160018201805461141390612b35565b80601f016020809104026020016040519081016040528092919081815260200182805461143f90612b35565b801561148c5780601f106114615761010080835404028352916020019161148c565b820191906000526020600020905b81548152906001019060200180831161146f57829003601f168201915b505050505081525050905080915050919050565b6114a8611edd565b8173ffffffffffffffffffffffffffffffffffffffff166108fc60019081150290604051600060405180830381858888f193505050501580156114ef573d6000803e3d6000fd5b5060006040518060400160405280868152602001858152509050600460008473ffffffffffffffffffffffffffffffffffffffff1673ffffffffffffffffffffffffffffffffffffffff168152602001908152602001600020819080600181540180825580915050600190039060005260206000209060020201600090919091909150600082015181600001908051906020019061158e929190611e57565b5060208201518160010190805190602001906115ab929190611e57565b505050806005866040516115bf9190612cad565b908152602001604051809103902060008201518160000190805190602001906115e9929190611e57565b506020820151816001019080519060200190611606929190611e57565b50905050600060058660405161161c9190612cad565b908152602001604051809103902060405180604001604052908160008201805461164590612b35565b80601f016020809104026020016040519081016040528092919081815260200182805461167190612b35565b80156116be5780601f10611693576101008083540402835291602001916116be565b820191906000526020600020905b8154815290600101906020018083116116a157829003601f168201915b505050505081526020016001820180546116d790612b35565b80601f016020809104026020016040519081016040528092919081815260200182805461170390612b35565b80156117505780601f1061172557610100808354040283529160200191611750565b820191906000526020600020905b81548152906001019060200180831161173357829003601f168201915b505050505081525050905080925050509392505050565b6002602052816000526040600020818154811061178357600080fd5b90600052602060002090600b0201600091509150508060000154908060010160009054906101000a900473ffffffffffffffffffffffffffffffffffffffff16908060020160009054906101000a900473ffffffffffffffffffffffffffffffffffffffff16908060030154908060040154908060050160009054906101000a900460ff169080600601805461181890612b35565b80601f016020809104026020016040519081016040528092919081815260200182805461184490612b35565b80156118915780601f1061186657610100808354040283529160200191611891565b820191906000526020600020905b81548152906001019060200180831161187457829003601f168201915b5050505050908060070154908060080180546118ac90612b35565b80601f01602080910402602001604051908101604052809291908181526020018280546118d890612b35565b80156119255780601f106118fa57610100808354040283529160200191611925565b820191906000526020600020905b81548152906001019060200180831161190857829003601f168201915b50505050509080600901549080600a0160009054906101000a900460ff1690508b565b60036020528060005260406000206000915090508060000154908060010160009054906101000a900473ffffffffffffffffffffffffffffffffffffffff16908060020160009054906101000a900473ffffffffffffffffffffffffffffffffffffffff16908060030154908060040154908060050160009054906101000a900460ff16908060060180546119dc90612b35565b80601f0160208091040260200160405190810160405280929190818152602001828054611a0890612b35565b8015611a555780601f10611a2a57610100808354040283529160200191611a55565b820191906000526020600020905b815481529060010190602001808311611a3857829003601f168201915b505050505090806007015490806008018054611a7090612b35565b80601f0160208091040260200160405190810160405280929190818152602001828054611a9c90612b35565b8015611ae95780601f10611abe57610100808354040283529160200191611ae9565b820191906000526020600020905b815481529060010190602001808311611acc57829003601f168201915b50505050509080600901549080600a0160009054906101000a900460ff1690508b565b600080600080600080606060006060600080600360008d815260200190815260200160002060405180610160016040529081600082015481526020016001820160009054906101000a900473ffffffffffffffffffffffffffffffffffffffff1673ffffffffffffffffffffffffffffffffffffffff1673ffffffffffffffffffffffffffffffffffffffff1681526020016002820160009054906101000a900473ffffffffffffffffffffffffffffffffffffffff1673ffffffffffffffffffffffffffffffffffffffff1673ffffffffffffffffffffffffffffffffffffffff16815260200160038201548152602001600482015481526020016005820160009054906101000a900460ff16151515158152602001600682018054611c3290612b35565b80601f0160208091040260200160405190810160405280929190818152602001828054611c5e90612b35565b8015611cab5780601f10611c8057610100808354040283529160200191611cab565b820191906000526020600020905b815481529060010190602001808311611c8e57829003601f168201915b5050505050815260200160078201548152602001600882018054611cce90612b35565b80601f0160208091040260200160405190810160405280929190818152602001828054611cfa90612b35565b8015611d475780601f10611d1c57610100808354040283529160200191611d47565b820191906000526020600020905b815481529060010190602001808311611d2a57829003601f168201915b5050505050815260200160098201548152602001600a820160009054906101000a900460ff1615151515815250509050806000015181602001518260400151836060015184608001518560a001518660c001518760e001518861010001518961012001519a509a509a509a509a509a509a509a509a509a50509193959799509193959799565b60405180610160016040528060008152602001600073ffffffffffffffffffffffffffffffffffffffff168152602001600073ffffffffffffffffffffffffffffffffffffffff1681526020016000815260200160008152602001600015158152602001606081526020016000815260200160608152602001600081526020016000151581525090565b828054611e6390612b35565b90600052602060002090601f016020900481019282611e855760008555611ecc565b82601f10611e9e57805160ff1916838001178555611ecc565b82800160010185558215611ecc579182015b82811115611ecb578251825591602001919060010190611eb0565b5b509050611ed99190611ef7565b5090565b604051806040016040528060608152602001606081525090565b5b80821115611f10576000816000905550600101611ef8565b5090565b6000604051905090565b600080fd5b600080fd5b600080fd5b600080fd5b6000601f19601f8301169050919050565b7f4e487b7100000000000000000000000000000000000000000000000000000000600052604160045260246000fd5b611f7b82611f32565b810181811067ffffffffffffffff82111715611f9a57611f99611f43565b5b80604052505050565b6000611fad611f14565b9050611fb98282611f72565b919050565b600067ffffffffffffffff821115611fd957611fd8611f43565b5b611fe282611f32565b9050602081019050919050565b82818337600083830152505050565b600061201161200c84611fbe565b611fa3565b90508281526020810184848401111561202d5761202c611f2d565b5b612038848285611fef565b509392505050565b600082601f83011261205557612054611f28565b5b8135612065848260208601611ffe565b91505092915050565b60006020828403121561208457612083611f1e565b5b600082013567ffffffffffffffff8111156120a2576120a1611f23565b5b6120ae84828501612040565b91505092915050565b600081519050919050565b600082825260208201905092915050565b60005b838110156120f15780820151818401526020810190506120d6565b83811115612100576000848401525b50505050565b6000612111826120b7565b61211b81856120c2565b935061212b8185602086016120d3565b61213481611f32565b840191505092915050565b600060408201905081810360008301526121598185612106565b9050818103602083015261216d8184612106565b90509392505050565b600073ffffffffffffffffffffffffffffffffffffffff82169050919050565b60006121a182612176565b9050919050565b6121b181612196565b81146121bc57600080fd5b50565b6000813590506121ce816121a8565b92915050565b6000602082840312156121ea576121e9611f1e565b5b60006121f8848285016121bf565b91505092915050565b600081519050919050565b600082825260208201905092915050565b6000819050602082019050919050565b600082825260208201905092915050565b6000612249826120b7565b612253818561222d565b93506122638185602086016120d3565b61226c81611f32565b840191505092915050565b60006040830160008301518482036000860152612294828261223e565b915050602083015184820360208601526122ae828261223e565b9150508091505092915050565b60006122c78383612277565b905092915050565b6000602082019050919050565b60006122e782612201565b6122f1818561220c565b9350836020820285016123038561221d565b8060005b8581101561233f578484038952815161232085826122bb565b945061232b836122cf565b925060208a01995050600181019050612307565b50829750879550505050505092915050565b6000602082019050818103600083015261236b81846122dc565b905092915050565b6000819050919050565b61238681612373565b811461239157600080fd5b50565b6000813590506123a38161237d565b92915050565b600080604083850312156123c0576123bf611f1e565b5b60006123ce858286016121bf565b92505060206123df85828601612394565b9150509250929050565b600081519050919050565b600082825260208201905092915050565b6000819050602082019050919050565b61241e81612373565b82525050565b61242d81612196565b82525050565b60008115159050919050565b61244881612433565b82525050565b6000610160830160008301516124676000860182612415565b50602083015161247a6020860182612424565b50604083015161248d6040860182612424565b5060608301516124a06060860182612415565b5060808301516124b36080860182612415565b5060a08301516124c660a086018261243f565b5060c083015184820360c08601526124de828261223e565b91505060e08301516124f360e0860182612415565b5061010083015184820361010086015261250d828261223e565b915050610120830151612524610120860182612415565b5061014083015161253961014086018261243f565b508091505092915050565b6000612550838361244e565b905092915050565b6000602082019050919050565b6000612570826123e9565b61257a81856123f4565b93508360208202850161258c85612405565b8060005b858110156125c857848403895281516125a98582612544565b94506125b483612558565b925060208a01995050600181019050612590565b50829750879550505050505092915050565b600060208201905081810360008301526125f48184612565565b905092915050565b600061260782612176565b9050919050565b612617816125fc565b811461262257600080fd5b50565b6000813590506126348161260e565b92915050565b61264381612433565b811461264e57600080fd5b50565b6000813590506126608161263a565b92915050565b600080600080600080600060e0888a03121561268557612684611f1e565b5b60006126938a828b01612625565b97505060206126a48a828b01612394565b96505060406126b58a828b01612651565b955050606088013567ffffffffffffffff8111156126d6576126d5611f23565b5b6126e28a828b01612040565b94505060806126f38a828b01612394565b93505060a088013567ffffffffffffffff81111561271457612713611f23565b5b6127208a828b01612040565b92505060c06127318a828b01612394565b91505092959891949750929550565b6000610160830160008301516127596000860182612415565b50602083015161276c6020860182612424565b50604083015161277f6040860182612424565b5060608301516127926060860182612415565b5060808301516127a56080860182612415565b5060a08301516127b860a086018261243f565b5060c083015184820360c08601526127d0828261223e565b91505060e08301516127e560e0860182612415565b506101008301518482036101008601526127ff828261223e565b915050610120830151612816610120860182612415565b5061014083015161282b61014086018261243f565b508091505092915050565b600060208201905081810360008301526128508184612740565b905092915050565b60006040830160008301518482036000860152612875828261223e565b9150506020830151848203602086015261288f828261223e565b9150508091505092915050565b600060208201905081810360008301526128b68184612858565b905092915050565b6000806000606084860312156128d7576128d6611f1e565b5b600084013567ffffffffffffffff8111156128f5576128f4611f23565b5b61290186828701612040565b935050602084013567ffffffffffffffff81111561292257612921611f23565b5b61292e86828701612040565b925050604061293f86828701612625565b9150509250925092565b61295281612373565b82525050565b61296181612196565b82525050565b61297081612433565b82525050565b60006101608201905061298c600083018e612949565b612999602083018d612958565b6129a6604083018c612958565b6129b3606083018b612949565b6129c0608083018a612949565b6129cd60a0830189612967565b81810360c08301526129df8188612106565b90506129ee60e0830187612949565b818103610100830152612a018186612106565b9050612a11610120830185612949565b612a1f610140830184612967565b9c9b505050505050505050505050565b600060208284031215612a4557612a44611f1e565b5b6000612a5384828501612394565b91505092915050565b600061014082019050612a72600083018d612949565b612a7f602083018c612958565b612a8c604083018b612958565b612a99606083018a612949565b612aa66080830189612949565b612ab360a0830188612967565b81810360c0830152612ac58187612106565b9050612ad460e0830186612949565b818103610100830152612ae78185612106565b9050612af7610120830184612949565b9b9a5050505050505050505050565b7f4e487b7100000000000000000000000000000000000000000000000000000000600052602260045260246000fd5b60006002820490506001821680612b4d57607f821691505b60208210811415612b6157612b60612b06565b5b50919050565b7f73656e646572206d7573742073656e6420736f6d652076616c7565206772656160008201527f746572207468616e203020776569000000000000000000000000000000000000602082015250565b6000612bc3602e836120c2565b9150612bce82612b67565b604082019050919050565b60006020820190508181036000830152612bf281612bb6565b9050919050565b7f4e487b7100000000000000000000000000000000000000000000000000000000600052601160045260246000fd5b6000612c3382612373565b91507fffffffffffffffffffffffffffffffffffffffffffffffffffffffffffffffff821415612c6657612c65612bf9565b5b600182019050919050565b600081905092915050565b6000612c87826120b7565b612c918185612c71565b9350612ca18185602086016120d3565b80840191505092915050565b6000612cb98284612c7c565b91508190509291505056fea26469706673582212207ab57764a1f90f9ba5c1cb691b47ba5700a4ed910d995186bbbb671b61418a1264736f6c634300080b0033",
  "immutableReferences": {},
  "source": "// SPDX-License-Identifier: MIT\r\npragma solidity 0.8.11;\r\n\r\ncontract fundEth {\r\n    uint donation_id = 1;\r\n    string blockHash;\r\n\r\n    struct Donation {\r\n        uint donation_id;\r\n        address from_address;\r\n        address to_address;\r\n        uint eth_in_wei;\r\n        uint256 date;\r\n        bool anonymous_state;\r\n        string doner;\r\n        uint donerId;\r\n        string charity;\r\n        uint charityId;\r\n        bool donated;\r\n    }\r\n\r\n    struct ExpenseReason {\r\n        string blockHash;\r\n        string reason;\r\n    }\r\n\r\n    mapping(address => Donation[]) public Donations;\r\n    mapping(uint => Donation) public DonationsById;\r\n\r\n    mapping(address => ExpenseReason[]) public ExpenseReasons;\r\n    mapping(string => ExpenseReason) public ExpenseReasonByHash;\r\n\r\n    function createDonation(address payable to_address, uint256 date, bool anonymous_state, string memory doner, uint donerId, string memory charity, uint charityId) public payable returns(Donation memory) {\r\n        require(msg.value > 0, \"sender must send some value greater than 0 wei\");\r\n        to_address.transfer(msg.value);\r\n            Donation memory donation_data;\r\n        if(anonymous_state)\r\n            donation_data = Donation(donation_id, msg.sender, to_address, msg.value, date, anonymous_state, \"Anonymous\", 0, charity, charityId, true);\r\n        else\r\n            donation_data = Donation(donation_id, msg.sender, to_address, msg.value, date, anonymous_state, doner, donerId, charity, charityId, true);\r\n        Donations[msg.sender].push(donation_data);\r\n        Donations[to_address].push(donation_data);\r\n        DonationsById[donation_id] = donation_data;\r\n        donation_id++;\r\n        return  DonationsById[donation_id];\r\n    }\r\n\r\n    function getDonationsOf(address of_address) public view returns(Donation[] memory) {\r\n        return Donations[of_address];\r\n    }\r\n\r\n    function getDonationByID(uint d_id) public view returns(uint, address, address, uint, uint256, bool, string memory, uint, string memory, uint) {\r\n        Donation memory d = DonationsById[d_id];\r\n        return (d.donation_id, d.from_address, d.to_address, d.eth_in_wei, d.date, d.anonymous_state, d.doner, d.donerId, d.charity, d.charityId);\r\n    }\r\n\r\n    function createExpense(string memory blockHash, string memory reason, address payable from) public returns(ExpenseReason memory) {\r\n        from.transfer(1);\r\n        ExpenseReason memory exReason = ExpenseReason(blockHash, reason);\r\n        ExpenseReasons[from].push(exReason);\r\n        ExpenseReasonByHash[blockHash] = exReason;\r\n        ExpenseReason memory rs = ExpenseReasonByHash[blockHash];\r\n        return rs;\r\n    }\r\n\r\n    function getExpenseByHash(string memory blockHash) public view returns(ExpenseReason memory) {\r\n        ExpenseReason memory rs = ExpenseReasonByHash[blockHash];\r\n        return rs;\r\n    }\r\n\r\n    function getExpensesOf(address of_address) public view returns(ExpenseReason[] memory) {\r\n        return ExpenseReasons[of_address];\r\n    }\r\n}",
  "sourcePath": "D:\\Jay\\Projects\\Personal\\Fund Tracking\\Frontend\\charity-fund-tracker-webapp\\src\\contracts\\fundEth.sol",
  "compiler": {
    "name": "solc",
    "version": "0.8.11+commit.d7f03943.Emscripten.clang"
  },
  "schemaVersion": "3.4.4",
  "updatedAt": "2022-06-12T12:32:00.303Z",
  "networkType": "ethereum",
  "devdoc": {
    "kind": "dev",
    "methods": {},
    "version": 1
  },
  "userdoc": {
    "kind": "user",
    "methods": {},
    "version": 1
  }
}