{
  "contractName": "fundEth",
  "abi": [
    {
      "inputs": [
        {
          "internalType": "address",
          "name": "",
          "type": "address"
        },
        {
          "internalType": "uint256",
          "name": "",
          "type": "uint256"
        }
      ],
      "name": "Donations",
      "outputs": [
        {
          "internalType": "uint256",
          "name": "donation_id",
          "type": "uint256"
        },
        {
          "internalType": "address",
          "name": "from_address",
          "type": "address"
        },
        {
          "internalType": "address",
          "name": "to_address",
          "type": "address"
        },
        {
          "internalType": "uint256",
          "name": "eth_in_wei",
          "type": "uint256"
        },
        {
          "internalType": "uint256",
          "name": "date",
          "type": "uint256"
        },
        {
          "internalType": "bool",
          "name": "anonymous_state",
          "type": "bool"
        },
        {
          "internalType": "string",
          "name": "doner",
          "type": "string"
        },
        {
          "internalType": "uint256",
          "name": "donerId",
          "type": "uint256"
        },
        {
          "internalType": "string",
          "name": "charity",
          "type": "string"
        },
        {
          "internalType": "uint256",
          "name": "charityId",
          "type": "uint256"
        },
        {
          "internalType": "bool",
          "name": "donated",
          "type": "bool"
        }
      ],
      "stateMutability": "view",
      "type": "function",
      "constant": true
    },
    {
      "inputs": [
        {
          "internalType": "uint256",
          "name": "",
          "type": "uint256"
        }
      ],
      "name": "DonationsById",
      "outputs": [
        {
          "internalType": "uint256",
          "name": "donation_id",
          "type": "uint256"
        },
        {
          "internalType": "address",
          "name": "from_address",
          "type": "address"
        },
        {
          "internalType": "address",
          "name": "to_address",
          "type": "address"
        },
        {
          "internalType": "uint256",
          "name": "eth_in_wei",
          "type": "uint256"
        },
        {
          "internalType": "uint256",
          "name": "date",
          "type": "uint256"
        },
        {
          "internalType": "bool",
          "name": "anonymous_state",
          "type": "bool"
        },
        {
          "internalType": "string",
          "name": "doner",
          "type": "string"
        },
        {
          "internalType": "uint256",
          "name": "donerId",
          "type": "uint256"
        },
        {
          "internalType": "string",
          "name": "charity",
          "type": "string"
        },
        {
          "internalType": "uint256",
          "name": "charityId",
          "type": "uint256"
        },
        {
          "internalType": "bool",
          "name": "donated",
          "type": "bool"
        }
      ],
      "stateMutability": "view",
      "type": "function",
      "constant": true
    },
    {
      "inputs": [
        {
          "internalType": "address payable",
          "name": "to_address",
          "type": "address"
        },
        {
          "internalType": "uint256",
          "name": "date",
          "type": "uint256"
        },
        {
          "internalType": "bool",
          "name": "anonymous_state",
          "type": "bool"
        },
        {
          "internalType": "string",
          "name": "doner",
          "type": "string"
        },
        {
          "internalType": "uint256",
          "name": "donerId",
          "type": "uint256"
        },
        {
          "internalType": "string",
          "name": "charity",
          "type": "string"
        },
        {
          "internalType": "uint256",
          "name": "charityId",
          "type": "uint256"
        }
      ],
      "name": "createDonation",
      "outputs": [
        {
          "components": [
            {
              "internalType": "uint256",
              "name": "donation_id",
              "type": "uint256"
            },
            {
              "internalType": "address",
              "name": "from_address",
              "type": "address"
            },
            {
              "internalType": "address",
              "name": "to_address",
              "type": "address"
            },
            {
              "internalType": "uint256",
              "name": "eth_in_wei",
              "type": "uint256"
            },
            {
              "internalType": "uint256",
              "name": "date",
              "type": "uint256"
            },
            {
              "internalType": "bool",
              "name": "anonymous_state",
              "type": "bool"
            },
            {
              "internalType": "string",
              "name": "doner",
              "type": "string"
            },
            {
              "internalType": "uint256",
              "name": "donerId",
              "type": "uint256"
            },
            {
              "internalType": "string",
              "name": "charity",
              "type": "string"
            },
            {
              "internalType": "uint256",
              "name": "charityId",
              "type": "uint256"
            },
            {
              "internalType": "bool",
              "name": "donated",
              "type": "bool"
            }
          ],
          "internalType": "struct fundEth.Donation",
          "name": "",
          "type": "tuple"
        }
      ],
      "stateMutability": "payable",
      "type": "function",
      "payable": true
    },
    {
      "inputs": [
        {
          "internalType": "address",
          "name": "of_address",
          "type": "address"
        }
      ],
      "name": "getDonationsOf",
      "outputs": [
        {
          "components": [
            {
              "internalType": "uint256",
              "name": "donation_id",
              "type": "uint256"
            },
            {
              "internalType": "address",
              "name": "from_address",
              "type": "address"
            },
            {
              "internalType": "address",
              "name": "to_address",
              "type": "address"
            },
            {
              "internalType": "uint256",
              "name": "eth_in_wei",
              "type": "uint256"
            },
            {
              "internalType": "uint256",
              "name": "date",
              "type": "uint256"
            },
            {
              "internalType": "bool",
              "name": "anonymous_state",
              "type": "bool"
            },
            {
              "internalType": "string",
              "name": "doner",
              "type": "string"
            },
            {
              "internalType": "uint256",
              "name": "donerId",
              "type": "uint256"
            },
            {
              "internalType": "string",
              "name": "charity",
              "type": "string"
            },
            {
              "internalType": "uint256",
              "name": "charityId",
              "type": "uint256"
            },
            {
              "internalType": "bool",
              "name": "donated",
              "type": "bool"
            }
          ],
          "internalType": "struct fundEth.Donation[]",
          "name": "",
          "type": "tuple[]"
        }
      ],
      "stateMutability": "view",
      "type": "function",
      "constant": true
    },
    {
      "inputs": [
        {
          "internalType": "uint256",
          "name": "d_id",
          "type": "uint256"
        }
      ],
      "name": "getDonationByID",
      "outputs": [
        {
          "internalType": "uint256",
          "name": "",
          "type": "uint256"
        },
        {
          "internalType": "address",
          "name": "",
          "type": "address"
        },
        {
          "internalType": "address",
          "name": "",
          "type": "address"
        },
        {
          "internalType": "uint256",
          "name": "",
          "type": "uint256"
        },
        {
          "internalType": "uint256",
          "name": "",
          "type": "uint256"
        },
        {
          "internalType": "bool",
          "name": "",
          "type": "bool"
        },
        {
          "internalType": "string",
          "name": "",
          "type": "string"
        },
        {
          "internalType": "uint256",
          "name": "",
          "type": "uint256"
        },
        {
          "internalType": "string",
          "name": "",
          "type": "string"
        },
        {
          "internalType": "uint256",
          "name": "",
          "type": "uint256"
        }
      ],
      "stateMutability": "view",
      "type": "function",
      "constant": true
    }
  ],
  "bytecode": "0x6080604052600160005534801561001557600080fd5b50611ff4806100256000396000f3fe60806040526004361061004a5760003560e01c8063814075f41461004f5780638ff6f6bb1461008c578063e8898688146100bc578063f129558614610103578063fc5061171461014a575b600080fd5b34801561005b57600080fd5b506100766004803603810190610071919061156c565b610190565b604051610083919061182d565b60405180910390f35b6100a660048036038101906100a19190611a1a565b610467565b6040516100b39190611bea565b60405180910390f35b3480156100c857600080fd5b506100e360048036038101906100de9190611c0c565b610d67565b6040516100fa9b9a99989796959493929190611cc3565b60405180910390f35b34801561010f57600080fd5b5061012a60048036038101906101259190611d7c565b610f48565b6040516101419b9a99989796959493929190611cc3565b60405180910390f35b34801561015657600080fd5b50610171600480360381019061016c9190611d7c565b61110c565b6040516101879a99989796959493929190611da9565b60405180910390f35b6060600160008373ffffffffffffffffffffffffffffffffffffffff1673ffffffffffffffffffffffffffffffffffffffff168152602001908152602001600020805480602002602001604051908101604052809291908181526020016000905b8282101561045c57838290600052602060002090600b020160405180610160016040529081600082015481526020016001820160009054906101000a900473ffffffffffffffffffffffffffffffffffffffff1673ffffffffffffffffffffffffffffffffffffffff1673ffffffffffffffffffffffffffffffffffffffff1681526020016002820160009054906101000a900473ffffffffffffffffffffffffffffffffffffffff1673ffffffffffffffffffffffffffffffffffffffff1673ffffffffffffffffffffffffffffffffffffffff16815260200160038201548152602001600482015481526020016005820160009054906101000a900460ff1615151515815260200160068201805461030a90611e82565b80601f016020809104026020016040519081016040528092919081815260200182805461033690611e82565b80156103835780601f1061035857610100808354040283529160200191610383565b820191906000526020600020905b81548152906001019060200180831161036657829003601f168201915b50505050508152602001600782015481526020016008820180546103a690611e82565b80601f01602080910402602001604051908101604052809291908181526020018280546103d290611e82565b801561041f5780601f106103f45761010080835404028352916020019161041f565b820191906000526020600020905b81548152906001019060200180831161040257829003601f168201915b5050505050815260200160098201548152602001600a820160009054906101000a900460ff161515151581525050815260200190600101906101f1565b505050509050919050565b61046f6113cd565b600034116104b2576040517f08c379a00000000000000000000000000000000000000000000000000000000081526004016104a990611f26565b60405180910390fd5b8773ffffffffffffffffffffffffffffffffffffffff166108fc349081150290604051600060405180830381858888f193505050501580156104f8573d6000803e3d6000fd5b506105016113cd565b86156105c35760405180610160016040528060005481526020013373ffffffffffffffffffffffffffffffffffffffff1681526020018a73ffffffffffffffffffffffffffffffffffffffff16815260200134815260200189815260200188151581526020016040518060400160405280600981526020017f416e6f6e796d6f75730000000000000000000000000000000000000000000000815250815260200160008152602001858152602001848152602001600115158152509050610645565b60405180610160016040528060005481526020013373ffffffffffffffffffffffffffffffffffffffff1681526020018a73ffffffffffffffffffffffffffffffffffffffff16815260200134815260200189815260200188151581526020018781526020018681526020018581526020018481526020016001151581525090505b600160003373ffffffffffffffffffffffffffffffffffffffff1673ffffffffffffffffffffffffffffffffffffffff1681526020019081526020016000208190806001815401808255809150506001900390600052602060002090600b02016000909190919091506000820151816000015560208201518160010160006101000a81548173ffffffffffffffffffffffffffffffffffffffff021916908373ffffffffffffffffffffffffffffffffffffffff16021790555060408201518160020160006101000a81548173ffffffffffffffffffffffffffffffffffffffff021916908373ffffffffffffffffffffffffffffffffffffffff160217905550606082015181600301556080820151816004015560a08201518160050160006101000a81548160ff02191690831515021790555060c0820151816006019080519060200190610796929190611457565b5060e082015181600701556101008201518160080190805190602001906107be929190611457565b50610120820151816009015561014082015181600a0160006101000a81548160ff0219169083151502179055505050600160008a73ffffffffffffffffffffffffffffffffffffffff1673ffffffffffffffffffffffffffffffffffffffff1681526020019081526020016000208190806001815401808255809150506001900390600052602060002090600b02016000909190919091506000820151816000015560208201518160010160006101000a81548173ffffffffffffffffffffffffffffffffffffffff021916908373ffffffffffffffffffffffffffffffffffffffff16021790555060408201518160020160006101000a81548173ffffffffffffffffffffffffffffffffffffffff021916908373ffffffffffffffffffffffffffffffffffffffff160217905550606082015181600301556080820151816004015560a08201518160050160006101000a81548160ff02191690831515021790555060c082015181600601908051906020019061093e929190611457565b5060e08201518160070155610100820151816008019080519060200190610966929190611457565b50610120820151816009015561014082015181600a0160006101000a81548160ff02191690831515021790555050508060026000805481526020019081526020016000206000820151816000015560208201518160010160006101000a81548173ffffffffffffffffffffffffffffffffffffffff021916908373ffffffffffffffffffffffffffffffffffffffff16021790555060408201518160020160006101000a81548173ffffffffffffffffffffffffffffffffffffffff021916908373ffffffffffffffffffffffffffffffffffffffff160217905550606082015181600301556080820151816004015560a08201518160050160006101000a81548160ff02191690831515021790555060c0820151816006019080519060200190610a92929190611457565b5060e08201518160070155610100820151816008019080519060200190610aba929190611457565b50610120820151816009015561014082015181600a0160006101000a81548160ff021916908315150217905550905050600080815480929190610afc90611f75565b9190505550600260008054815260200190815260200160002060405180610160016040529081600082015481526020016001820160009054906101000a900473ffffffffffffffffffffffffffffffffffffffff1673ffffffffffffffffffffffffffffffffffffffff1673ffffffffffffffffffffffffffffffffffffffff1681526020016002820160009054906101000a900473ffffffffffffffffffffffffffffffffffffffff1673ffffffffffffffffffffffffffffffffffffffff1673ffffffffffffffffffffffffffffffffffffffff16815260200160038201548152602001600482015481526020016005820160009054906101000a900460ff16151515158152602001600682018054610c1690611e82565b80601f0160208091040260200160405190810160405280929190818152602001828054610c4290611e82565b8015610c8f5780601f10610c6457610100808354040283529160200191610c8f565b820191906000526020600020905b815481529060010190602001808311610c7257829003601f168201915b5050505050815260200160078201548152602001600882018054610cb290611e82565b80601f0160208091040260200160405190810160405280929190818152602001828054610cde90611e82565b8015610d2b5780601f10610d0057610100808354040283529160200191610d2b565b820191906000526020600020905b815481529060010190602001808311610d0e57829003601f168201915b5050505050815260200160098201548152602001600a820160009054906101000a900460ff161515151581525050915050979650505050505050565b60016020528160005260406000208181548110610d8357600080fd5b90600052602060002090600b0201600091509150508060000154908060010160009054906101000a900473ffffffffffffffffffffffffffffffffffffffff16908060020160009054906101000a900473ffffffffffffffffffffffffffffffffffffffff16908060030154908060040154908060050160009054906101000a900460ff1690806006018054610e1890611e82565b80601f0160208091040260200160405190810160405280929190818152602001828054610e4490611e82565b8015610e915780601f10610e6657610100808354040283529160200191610e91565b820191906000526020600020905b815481529060010190602001808311610e7457829003601f168201915b505050505090806007015490806008018054610eac90611e82565b80601f0160208091040260200160405190810160405280929190818152602001828054610ed890611e82565b8015610f255780601f10610efa57610100808354040283529160200191610f25565b820191906000526020600020905b815481529060010190602001808311610f0857829003601f168201915b50505050509080600901549080600a0160009054906101000a900460ff1690508b565b60026020528060005260406000206000915090508060000154908060010160009054906101000a900473ffffffffffffffffffffffffffffffffffffffff16908060020160009054906101000a900473ffffffffffffffffffffffffffffffffffffffff16908060030154908060040154908060050160009054906101000a900460ff1690806006018054610fdc90611e82565b80601f016020809104026020016040519081016040528092919081815260200182805461100890611e82565b80156110555780601f1061102a57610100808354040283529160200191611055565b820191906000526020600020905b81548152906001019060200180831161103857829003601f168201915b50505050509080600701549080600801805461107090611e82565b80601f016020809104026020016040519081016040528092919081815260200182805461109c90611e82565b80156110e95780601f106110be576101008083540402835291602001916110e9565b820191906000526020600020905b8154815290600101906020018083116110cc57829003601f168201915b50505050509080600901549080600a0160009054906101000a900460ff1690508b565b600080600080600080606060006060600080600260008d815260200190815260200160002060405180610160016040529081600082015481526020016001820160009054906101000a900473ffffffffffffffffffffffffffffffffffffffff1673ffffffffffffffffffffffffffffffffffffffff1673ffffffffffffffffffffffffffffffffffffffff1681526020016002820160009054906101000a900473ffffffffffffffffffffffffffffffffffffffff1673ffffffffffffffffffffffffffffffffffffffff1673ffffffffffffffffffffffffffffffffffffffff16815260200160038201548152602001600482015481526020016005820160009054906101000a900460ff1615151515815260200160068201805461123290611e82565b80601f016020809104026020016040519081016040528092919081815260200182805461125e90611e82565b80156112ab5780601f10611280576101008083540402835291602001916112ab565b820191906000526020600020905b81548152906001019060200180831161128e57829003601f168201915b50505050508152602001600782015481526020016008820180546112ce90611e82565b80601f01602080910402602001604051908101604052809291908181526020018280546112fa90611e82565b80156113475780601f1061131c57610100808354040283529160200191611347565b820191906000526020600020905b81548152906001019060200180831161132a57829003601f168201915b5050505050815260200160098201548152602001600a820160009054906101000a900460ff1615151515815250509050806000015181602001518260400151836060015184608001518560a001518660c001518760e001518861010001518961012001519a509a509a509a509a509a509a509a509a509a50509193959799509193959799565b60405180610160016040528060008152602001600073ffffffffffffffffffffffffffffffffffffffff168152602001600073ffffffffffffffffffffffffffffffffffffffff1681526020016000815260200160008152602001600015158152602001606081526020016000815260200160608152602001600081526020016000151581525090565b82805461146390611e82565b90600052602060002090601f01602090048101928261148557600085556114cc565b82601f1061149e57805160ff19168380011785556114cc565b828001600101855582156114cc579182015b828111156114cb5782518255916020019190600101906114b0565b5b5090506114d991906114dd565b5090565b5b808211156114f65760008160009055506001016114de565b5090565b6000604051905090565b600080fd5b600080fd5b600073ffffffffffffffffffffffffffffffffffffffff82169050919050565b60006115398261150e565b9050919050565b6115498161152e565b811461155457600080fd5b50565b60008135905061156681611540565b92915050565b60006020828403121561158257611581611504565b5b600061159084828501611557565b91505092915050565b600081519050919050565b600082825260208201905092915050565b6000819050602082019050919050565b6000819050919050565b6115d8816115c5565b82525050565b6115e78161152e565b82525050565b60008115159050919050565b611602816115ed565b82525050565b600081519050919050565b600082825260208201905092915050565b60005b83811015611642578082015181840152602081019050611627565b83811115611651576000848401525b50505050565b6000601f19601f8301169050919050565b600061167382611608565b61167d8185611613565b935061168d818560208601611624565b61169681611657565b840191505092915050565b6000610160830160008301516116ba60008601826115cf565b5060208301516116cd60208601826115de565b5060408301516116e060408601826115de565b5060608301516116f360608601826115cf565b50608083015161170660808601826115cf565b5060a083015161171960a08601826115f9565b5060c083015184820360c08601526117318282611668565b91505060e083015161174660e08601826115cf565b506101008301518482036101008601526117608282611668565b9150506101208301516117776101208601826115cf565b5061014083015161178c6101408601826115f9565b508091505092915050565b60006117a383836116a1565b905092915050565b6000602082019050919050565b60006117c382611599565b6117cd81856115a4565b9350836020820285016117df856115b5565b8060005b8581101561181b57848403895281516117fc8582611797565b9450611807836117ab565b925060208a019950506001810190506117e3565b50829750879550505050505092915050565b6000602082019050818103600083015261184781846117b8565b905092915050565b600061185a8261150e565b9050919050565b61186a8161184f565b811461187557600080fd5b50565b60008135905061188781611861565b92915050565b611896816115c5565b81146118a157600080fd5b50565b6000813590506118b38161188d565b92915050565b6118c2816115ed565b81146118cd57600080fd5b50565b6000813590506118df816118b9565b92915050565b600080fd5b600080fd5b7f4e487b7100000000000000000000000000000000000000000000000000000000600052604160045260246000fd5b61192782611657565b810181811067ffffffffffffffff82111715611946576119456118ef565b5b80604052505050565b60006119596114fa565b9050611965828261191e565b919050565b600067ffffffffffffffff821115611985576119846118ef565b5b61198e82611657565b9050602081019050919050565b82818337600083830152505050565b60006119bd6119b88461196a565b61194f565b9050828152602081018484840111156119d9576119d86118ea565b5b6119e484828561199b565b509392505050565b600082601f830112611a0157611a006118e5565b5b8135611a118482602086016119aa565b91505092915050565b600080600080600080600060e0888a031215611a3957611a38611504565b5b6000611a478a828b01611878565b9750506020611a588a828b016118a4565b9650506040611a698a828b016118d0565b955050606088013567ffffffffffffffff811115611a8a57611a89611509565b5b611a968a828b016119ec565b9450506080611aa78a828b016118a4565b93505060a088013567ffffffffffffffff811115611ac857611ac7611509565b5b611ad48a828b016119ec565b92505060c0611ae58a828b016118a4565b91505092959891949750929550565b600061016083016000830151611b0d60008601826115cf565b506020830151611b2060208601826115de565b506040830151611b3360408601826115de565b506060830151611b4660608601826115cf565b506080830151611b5960808601826115cf565b5060a0830151611b6c60a08601826115f9565b5060c083015184820360c0860152611b848282611668565b91505060e0830151611b9960e08601826115cf565b50610100830151848203610100860152611bb38282611668565b915050610120830151611bca6101208601826115cf565b50610140830151611bdf6101408601826115f9565b508091505092915050565b60006020820190508181036000830152611c048184611af4565b905092915050565b60008060408385031215611c2357611c22611504565b5b6000611c3185828601611557565b9250506020611c42858286016118a4565b9150509250929050565b611c55816115c5565b82525050565b611c648161152e565b82525050565b611c73816115ed565b82525050565b600082825260208201905092915050565b6000611c9582611608565b611c9f8185611c79565b9350611caf818560208601611624565b611cb881611657565b840191505092915050565b600061016082019050611cd9600083018e611c4c565b611ce6602083018d611c5b565b611cf3604083018c611c5b565b611d00606083018b611c4c565b611d0d608083018a611c4c565b611d1a60a0830189611c6a565b81810360c0830152611d2c8188611c8a565b9050611d3b60e0830187611c4c565b818103610100830152611d4e8186611c8a565b9050611d5e610120830185611c4c565b611d6c610140830184611c6a565b9c9b505050505050505050505050565b600060208284031215611d9257611d91611504565b5b6000611da0848285016118a4565b91505092915050565b600061014082019050611dbf600083018d611c4c565b611dcc602083018c611c5b565b611dd9604083018b611c5b565b611de6606083018a611c4c565b611df36080830189611c4c565b611e0060a0830188611c6a565b81810360c0830152611e128187611c8a565b9050611e2160e0830186611c4c565b818103610100830152611e348185611c8a565b9050611e44610120830184611c4c565b9b9a5050505050505050505050565b7f4e487b7100000000000000000000000000000000000000000000000000000000600052602260045260246000fd5b60006002820490506001821680611e9a57607f821691505b60208210811415611eae57611ead611e53565b5b50919050565b7f73656e646572206d7573742073656e6420736f6d652076616c7565206772656160008201527f746572207468616e203020776569000000000000000000000000000000000000602082015250565b6000611f10602e83611c79565b9150611f1b82611eb4565b604082019050919050565b60006020820190508181036000830152611f3f81611f03565b9050919050565b7f4e487b7100000000000000000000000000000000000000000000000000000000600052601160045260246000fd5b6000611f80826115c5565b91507fffffffffffffffffffffffffffffffffffffffffffffffffffffffffffffffff821415611fb357611fb2611f46565b5b60018201905091905056fea2646970667358221220a441370d52d5354dba471791de5dc69fd909ee8c381a4f12e721fd5eb405c79364736f6c634300080b0033",
  "immutableReferences": {},
  "source": "// SPDX-License-Identifier: MIT\r\npragma solidity 0.8.11;\r\n\r\ncontract fundEth {\r\n    uint donation_id = 1;\r\n\r\n    struct Donation {\r\n        uint donation_id;\r\n        address from_address;\r\n        address to_address;\r\n        uint eth_in_wei;\r\n        uint256 date;\r\n        bool anonymous_state;\r\n        string doner;\r\n        uint donerId;\r\n        string charity;\r\n        uint charityId;\r\n        bool donated;\r\n    }\r\n\r\n    mapping(address => Donation[]) public Donations;\r\n    mapping(uint => Donation) public DonationsById;\r\n\r\n    function createDonation(address payable to_address, uint256 date, bool anonymous_state, string memory doner, uint donerId, string memory charity, uint charityId) public payable returns(Donation memory) {\r\n        require(msg.value > 0, \"sender must send some value greater than 0 wei\");\r\n        to_address.transfer(msg.value);\r\n            Donation memory donation_data;\r\n        if(anonymous_state)\r\n            donation_data = Donation(donation_id, msg.sender, to_address, msg.value, date, anonymous_state, \"Anonymous\", 0, charity, charityId, true);\r\n        else\r\n            donation_data = Donation(donation_id, msg.sender, to_address, msg.value, date, anonymous_state, doner, donerId, charity, charityId, true);\r\n        Donations[msg.sender].push(donation_data);\r\n        Donations[to_address].push(donation_data);\r\n        DonationsById[donation_id] = donation_data;\r\n        donation_id++;\r\n        return  DonationsById[donation_id];\r\n    }\r\n\r\n    function getDonationsOf(address of_address) public view returns(Donation[] memory) {\r\n        return Donations[of_address];\r\n    }\r\n\r\n    function getDonationByID(uint d_id) public view returns(uint, address, address, uint, uint256, bool, string memory, uint, string memory, uint) {\r\n        Donation memory d = DonationsById[d_id];\r\n        return (d.donation_id, d.from_address, d.to_address, d.eth_in_wei, d.date, d.anonymous_state, d.doner, d.donerId, d.charity, d.charityId);\r\n    }\r\n}",
  "sourcePath": "D:\\Jay\\Projects\\Personal\\Fund Tracking\\Frontend\\charity-fund-tracker-webapp\\src\\contracts\\fundEth.sol",
  "compiler": {
    "name": "solc",
    "version": "0.8.11+commit.d7f03943.Emscripten.clang"
  },
  "schemaVersion": "3.4.4",
  "updatedAt": "2022-06-03T15:58:13.420Z",
  "networkType": "ethereum",
  "devdoc": {
    "kind": "dev",
    "methods": {},
    "version": 1
  },
  "userdoc": {
    "kind": "user",
    "methods": {},
    "version": 1
  }
}